{"contracts/LMSR.sol":{"LSLMSRMarket":{"abi":[{"inputs":[{"internalType":"uint256","name":"_numOutcomes","type":"uint256"},{"internalType":"uint256","name":"_b0","type":"uint256"},{"internalType":"uint256","name":"_alpha","type":"uint256"}],"stateMutability":"payable","type":"constructor"},{"inputs":[],"name":"InsufficientPayment","type":"error"},{"inputs":[],"name":"InsufficientShares","type":"error"},{"inputs":[],"name":"InvalidDelta","type":"error"},{"inputs":[],"name":"InvalidInitialFunding","type":"error"},{"inputs":[],"name":"InvalidNumOutcomes","type":"error"},{"inputs":[],"name":"InvalidOutcome","type":"error"},{"inputs":[],"name":"MarketAlreadyResolved","type":"error"},{"inputs":[],"name":"NotResolved","type":"error"},{"inputs":[],"name":"OnlyOwner","type":"error"},{"anonymous":false,"inputs":[{"indexed":false,"internalType":"uint256","name":"initialCollateral","type":"uint256"}],"name":"MarketFunded","type":"event"},{"anonymous":false,"inputs":[{"indexed":true,"internalType":"uint256","name":"winningOutcome","type":"uint256"}],"name":"MarketResolved","type":"event"},{"anonymous":false,"inputs":[{"indexed":true,"internalType":"address","name":"user","type":"address"},{"indexed":true,"internalType":"uint256","name":"outcome","type":"uint256"},{"indexed":false,"internalType":"int256","name":"amount","type":"int256"}],"name":"SharesTransferred","type":"event"},{"inputs":[],"name":"DECIMALS","outputs":[{"internalType":"uint256","name":"","type":"uint256"}],"stateMutability":"view","type":"function"},{"inputs":[],"name":"alpha","outputs":[{"internalType":"uint256","name":"","type":"uint256"}],"stateMutability":"view","type":"function"},{"inputs":[],"name":"b0","outputs":[{"internalType":"uint256","name":"","type":"uint256"}],"stateMutability":"view","type":"function"},{"inputs":[],"name":"claimWinnings","outputs":[],"stateMutability":"nonpayable","type":"function"},{"inputs":[],"name":"collateral","outputs":[{"internalType":"uint256","name":"","type":"uint256"}],"stateMutability":"view","type":"function"},{"inputs":[{"internalType":"address","name":"user","type":"address"}],"name":"getAllUserBalances","outputs":[{"internalType":"uint256[]","name":"","type":"uint256[]"}],"stateMutability":"view","type":"function"},{"inputs":[],"name":"getB","outputs":[{"internalType":"uint256","name":"","type":"uint256"}],"stateMutability":"view","type":"function"},{"inputs":[],"name":"getMarketInfo","outputs":[{"internalType":"uint256","name":"_numOutcomes","type":"uint256"},{"internalType":"uint256","name":"_b0","type":"uint256"},{"internalType":"uint256","name":"_alpha","type":"uint256"},{"internalType":"uint256","name":"_currentB","type":"uint256"},{"internalType":"uint256","name":"_totalVolume","type":"uint256"},{"internalType":"uint256","name":"_collateral","type":"uint256"},{"internalType":"bool","name":"_resolved","type":"bool"},{"internalType":"uint256","name":"_winningOutcome","type":"uint256"}],"stateMutability":"view","type":"function"},{"inputs":[],"name":"getPrices","outputs":[{"internalType":"uint256[]","name":"","type":"uint256[]"}],"stateMutability":"view","type":"function"},{"inputs":[{"internalType":"uint256","name":"outcome","type":"uint256"},{"internalType":"int256","name":"delta","type":"int256"}],"name":"getTradeCost","outputs":[{"internalType":"int256","name":"cost","type":"int256"},{"internalType":"uint256[]","name":"newPrices","type":"uint256[]"}],"stateMutability":"view","type":"function"},{"inputs":[{"internalType":"address","name":"user","type":"address"},{"internalType":"uint256","name":"outcome","type":"uint256"}],"name":"getUserBalance","outputs":[{"internalType":"uint256","name":"","type":"uint256"}],"stateMutability":"view","type":"function"},{"inputs":[],"name":"numOutcomes","outputs":[{"internalType":"uint256","name":"","type":"uint256"}],"stateMutability":"view","type":"function"},{"inputs":[],"name":"owner","outputs":[{"internalType":"address","name":"","type":"address"}],"stateMutability":"view","type":"function"},{"inputs":[{"internalType":"uint256","name":"","type":"uint256"}],"name":"quantities","outputs":[{"internalType":"uint256","name":"","type":"uint256"}],"stateMutability":"view","type":"function"},{"inputs":[{"internalType":"uint256","name":"_winningOutcome","type":"uint256"}],"name":"resolveMarket","outputs":[],"stateMutability":"nonpayable","type":"function"},{"inputs":[],"name":"resolved","outputs":[{"internalType":"bool","name":"","type":"bool"}],"stateMutability":"view","type":"function"},{"inputs":[{"internalType":"address","name":"","type":"address"},{"internalType":"uint256","name":"","type":"uint256"}],"name":"shareBalances","outputs":[{"internalType":"uint256","name":"","type":"uint256"}],"stateMutability":"view","type":"function"},{"inputs":[],"name":"totalVolume","outputs":[{"internalType":"uint256","name":"","type":"uint256"}],"stateMutability":"view","type":"function"},{"inputs":[],"name":"winningOutcome","outputs":[{"internalType":"uint256","name":"","type":"uint256"}],"stateMutability":"view","type":"function"}],"evm":{"bytecode":{"linkReferences":{},"object":"60e060405260405162001ddc38038062001ddc8339810160408190526200002691620005d6565b6002831080620000365750600583115b15620000555760405163566f431760e11b815260040160405180910390fd5b608083905260a082905260c0819052600680546001600160a01b03191633179055826001600160401b0381111562000091576200009162000605565b604051908082528060200260200182016040528015620000bb578160200160208202803683370190505b508051620000d2916000916020909101906200056f565b50826001600160401b03811115620000ee57620000ee62000605565b60405190808252806020026020018201604052801562000118578160200160208202803683370190505b5033600090815260036020908152604090912082516200013f93919291909101906200056f565b5060006200014c620001fa565b905060006200016e62000168670de0b6b3a76400008762000631565b62000261565b90506000670de0b6b3a764000062000187838562000631565b62000193919062000667565b9050803414620001b65760405163688013f160e11b815260040160405180910390fd5b60028190556040518181527fe15e5eabdc7a1a04b0dc94a2dad6a7696e8f53c0d3f5b23b9280aa2cbd3f12db9060200160405180910390a1505050505050620006f7565b600080670de0b6b3a764000060015460c05162000218919062000631565b62000224919062000667565b9050600062000233826200040c565b9050670de0b6b3a76400008160a0516200024e919062000631565b6200025a919062000667565b9250505090565b6000808211620002b75760405162461bcd60e51b815260206004820152601660248201527f6c6e3a2078206d75737420626520706f73697469766500000000000000000000604482015260640160405180910390fd5b600082815b620002d1670de0b6b3a7640000600262000631565b8210620002fc57620002e560028362000667565b915080620002f3816200067e565b915050620002bc565b670de0b6b3a764000082101562000331576200031a82600262000631565b91508062000328816200069a565b915050620002fc565b600062000347670de0b6b3a764000084620006b4565b90508060015b600a8111620003de5762000363600282620006ca565b6001036200038b5762000377818362000667565b620003839087620006e1565b9550620003a6565b62000397818362000667565b620003a39087620006b4565b95505b670de0b6b3a7640000620003bb848462000631565b620003c7919062000667565b915080620003d5816200067e565b9150506200034d565b5067099e8db03256ce5d620003f4818562000631565b620004009087620006e1565b98975050505050505050565b600081600003620004265750670de0b6b3a7640000919050565b6200043b670de0b6b3a7640000603262000631565b82106200044b5750600019919050565b600062000461670de0b6b3a76400008462000667565b9050600062000479670de0b6b3a764000085620006ca565b90506725b946ebc0b36173670de0b6b3a764000060005b84811015620004d157670de0b6b3a7640000620004ae848462000631565b620004ba919062000667565b915080620004c8816200067e565b91505062000490565b50670de0b6b3a76400008360015b601481116200054d57620004f48284620006e1565b925062000503816001620006e1565b6200051790670de0b6b3a764000062000631565b62000523878462000631565b6200052f919062000667565b915081156200054d578062000544816200067e565b915050620004df565b50670de0b6b3a764000062000563838562000631565b62000400919062000667565b828054828255906000526020600020908101928215620005ad579160200282015b82811115620005ad57825182559160200191906001019062000590565b50620005bb929150620005bf565b5090565b5b80821115620005bb5760008155600101620005c0565b600080600060608486031215620005ec57600080fd5b8351925060208401519150604084015190509250925092565b634e487b7160e01b600052604160045260246000fd5b634e487b7160e01b600052601160045260246000fd5b80820281158282048414176200064b576200064b6200061b565b92915050565b634e487b7160e01b600052601260045260246000fd5b60008262000679576200067962000651565b500490565b6000600182016200069357620006936200061b565b5060010190565b600081620006ac57620006ac6200061b565b506000190190565b818103818111156200064b576200064b6200061b565b600082620006dc57620006dc62000651565b500690565b808201808211156200064b576200064b6200061b565b60805160a05160c05161161b620007c1600039600081816102c90152818161035c01526105080152600081816101920152818161033b01526105590152600081816102070152818161031a0152818161042c015281816105d20152818161080a01528181610888015281816108f001528181610b8501528181610bf601528181610c2b01528181610c5f01528181610ce701528181610d6301528181610dcb01528181610f0701528181610f3b01528181610f9d0152818161106c01526110e9015261161b6000f3fe608060405234801561001057600080fd5b50600436106101215760003560e01c806391a9648a116100ad578063b401faf111610071578063b401faf1146102ab578063bd9a548b146102b3578063d8dfeb45146102bb578063db1d0fd5146102c4578063f46aa875146102eb57600080fd5b806391a9648a146102545780639b34ae0314610267578063a1c5191514610270578063a412540314610278578063afd82fba1461028b57600080fd5b80635f81a57c116100f45780635f81a57c146101d157806363938202146101da5780636399d03d146101ed5780638767d64e146102025780638da5cb5b1461022957600080fd5b806323341a05146101265780632e0f2625146101705780633602175c1461018d5780633f6fa655146101b4575b600080fd5b61012e61030c565b604080519889526020890197909752958701949094526060860192909252608085015260a0840152151560c083015260e0820152610100015b60405180910390f35b61017f670de0b6b3a764000081565b604051908152602001610167565b61017f7f000000000000000000000000000000000000000000000000000000000000000081565b6004546101c19060ff1681565b6040519015158152602001610167565b61017f60015481565b61017f6101e83660046113c6565b6103aa565b6102006101fb3660046113f0565b6103db565b005b61017f7f000000000000000000000000000000000000000000000000000000000000000081565b60065461023c906001600160a01b031681565b6040516001600160a01b039091168152602001610167565b61017f6102623660046113c6565b6104aa565b61017f60055481565b61017f6104f7565b61017f6102863660046113f0565b61058e565b61029e610299366004611409565b6105af565b6040516101679190611466565b6102006106a3565b61029e6107a4565b61017f60025481565b61017f7f000000000000000000000000000000000000000000000000000000000000000081565b6102fe6102f9366004611479565b610804565b60405161016792919061149b565b6000806000806000806000807f00000000000000000000000000000000000000000000000000000000000000007f00000000000000000000000000000000000000000000000000000000000000007f00000000000000000000000000000000000000000000000000000000000000006103836104f7565b600154600254600454600554969f959e50939c50919a509850965060ff1694509092509050565b600360205281600052604060002081815481106103c657600080fd5b90600052602060002001600091509150505481565b6006546001600160a01b0316331461040657604051635fc483c560e01b815260040160405180910390fd5b60045460ff161561042a5760405163aa43cb2d60e01b815260040160405180910390fd5b7f0000000000000000000000000000000000000000000000000000000000000000811061046a5760405163c74a206d60e01b815260040160405180910390fd5b6004805460ff19166001179055600581905560405181907f93608ecbcf057462da63f5aef413ce7f78c5e1b3bb51859d77a40845ece2bfc390600090a250565b6001600160a01b038216600090815260036020526040812080546104cf5760006104ed565b8083815481106104e1576104e16114bc565b90600052602060002001545b9150505b92915050565b600080670de0b6b3a76400006001547f000000000000000000000000000000000000000000000000000000000000000061053191906114e8565b61053b9190611515565b9050600061054882610a33565b9050670de0b6b3a764000061057d827f00000000000000000000000000000000000000000000000000000000000000006114e8565b6105879190611515565b9250505090565b6000818154811061059e57600080fd5b600091825260209091200154905081565b6001600160a01b03811660009081526003602052604081205460609103610639577f000000000000000000000000000000000000000000000000000000000000000067ffffffffffffffff81111561060957610609611529565b604051908082528060200260200182016040528015610632578160200160208202803683370190505b5092915050565b6001600160a01b0382166000908152600360209081526040918290208054835181840281018401909452808452909183018282801561069757602002820191906000526020600020905b815481526020019060010190808311610683575b50505050509050919050565b60045460ff166106c657604051639f4a648960e01b815260040160405180910390fd5b3360009081526003602052604081205490036106f557604051633999656760e01b815260040160405180910390fd5b33600090815260036020526040812060055481548110610717576107176114bc565b906000526020600020015490508060000361074557604051633999656760e01b815260040160405180910390fd5b33600090815260036020526040812060055481548110610767576107676114bc565b6000918252602082200191909155604051339183156108fc02918491818181858888f193505050501580156107a0573d6000803e3d6000fd5b5050565b60606107ff60008054806020026020016040519081016040528092919081815260200182805480156107f557602002820191906000526020600020905b8154815260200190600101908083116107e1575b5050505050610b7f565b905090565b600060607f000000000000000000000000000000000000000000000000000000000000000084106108485760405163c74a206d60e01b815260040160405180910390fd5b82600003610869576040516305aa561360e11b815260040160405180910390fd5b60008084136108805761087b8461153f565b610882565b835b905060007f000000000000000000000000000000000000000000000000000000000000000067ffffffffffffffff8111156108bf576108bf611529565b6040519080825280602002602001820160405280156108e8578160200160208202803683370190505b50905060005b7f00000000000000000000000000000000000000000000000000000000000000008110156109635760008181548110610929576109296114bc565b9060005260206000200154828281518110610946576109466114bc565b60209081029190910101528061095b8161155b565b9150506108ee565b50600085131561099c5781818781518110610980576109806114bc565b602002602001018181516109949190611574565b905250610a01565b818187815181106109af576109af6114bc565b602002602001015110156109d657604051633999656760e01b815260040160405180910390fd5b818187815181106109e9576109e96114bc565b602002602001018181516109fd9190611587565b9052505b6000610a0c82611037565b905060025481610a1c919061159a565b9450610a2782610b7f565b93505050509250929050565b600081600003610a4c5750670de0b6b3a7640000919050565b610a5f670de0b6b3a764000060326114e8565b8210610a6e5750600019919050565b6000610a82670de0b6b3a764000084611515565b90506000610a98670de0b6b3a7640000856115ba565b90506725b946ebc0b36173670de0b6b3a764000060005b84811015610ae857670de0b6b3a7640000610aca84846114e8565b610ad49190611515565b915080610ae08161155b565b915050610aaf565b50670de0b6b3a76400008360015b60148111610b5557610b088284611574565b9250610b15816001611574565b610b2790670de0b6b3a76400006114e8565b610b3187846114e8565b610b3b9190611515565b91508115610b555780610b4d8161155b565b915050610af6565b50670de0b6b3a7640000610b6983856114e8565b610b739190611515565b98975050505050505050565b606060007f000000000000000000000000000000000000000000000000000000000000000067ffffffffffffffff811115610bbc57610bbc611529565b604051908082528060200260200182016040528015610be5578160200160208202803683370190505b5090506000610bf26104f7565b90507f00000000000000000000000000000000000000000000000000000000000000001580610c1f575080155b15610cbf576000610c587f0000000000000000000000000000000000000000000000000000000000000000670de0b6b3a7640000611515565b905060005b7f0000000000000000000000000000000000000000000000000000000000000000811015610cb55781848281518110610c9857610c986114bc565b602090810291909101015280610cad8161155b565b915050610c5d565b5091949350505050565b600084600081518110610cd457610cd46114bc565b602002602001015190506000600190505b7f0000000000000000000000000000000000000000000000000000000000000000811015610d5d5781868281518110610d2057610d206114bc565b60200260200101511115610d4b57858181518110610d4057610d406114bc565b602002602001015191505b80610d558161155b565b915050610ce5565b506000807f000000000000000000000000000000000000000000000000000000000000000067ffffffffffffffff811115610d9a57610d9a611529565b604051908082528060200260200182016040528015610dc3578160200160208202803683370190505b50905060005b7f0000000000000000000000000000000000000000000000000000000000000000811015610ef7576000888281518110610e0557610e056114bc565b60200260200101518511610e1a576000610e3f565b888281518110610e2c57610e2c6114bc565b602002602001015185610e3f9190611587565b9050600086610e56670de0b6b3a7640000846114e8565b610e609190611515565b9050600081600003610e7b5750670de0b6b3a7640000610eb7565b6000610e8683610a33565b90508015610eb05780610ea1670de0b6b3a7640000806114e8565b610eab9190611515565b610eb3565b60005b9150505b80858581518110610eca57610eca6114bc565b6020908102919091010152610edf8187611574565b95505050508080610eef9061155b565b915050610dc9565b5081600003610f98576000610f347f0000000000000000000000000000000000000000000000000000000000000000670de0b6b3a7640000611515565b905060005b7f0000000000000000000000000000000000000000000000000000000000000000811015610f915781878281518110610f7457610f746114bc565b602090810291909101015280610f898161155b565b915050610f39565b505061102c565b60005b7f000000000000000000000000000000000000000000000000000000000000000081101561102a5782670de0b6b3a7640000838381518110610fdf57610fdf6114bc565b6020026020010151610ff191906114e8565b610ffb9190611515565b86828151811061100d5761100d6114bc565b6020908102919091010152806110228161155b565b915050610f9b565b505b509295945050505050565b6000806110426104f7565b9050600083600081518110611059576110596114bc565b602002602001015190506000600190505b7f00000000000000000000000000000000000000000000000000000000000000008110156110e257818582815181106110a5576110a56114bc565b602002602001015111156110d0578481815181106110c5576110c56114bc565b602002602001015191505b806110da8161155b565b91505061106a565b506000805b7f00000000000000000000000000000000000000000000000000000000000000008110156111f7576000868281518110611123576111236114bc565b6020026020010151841161113857600061115d565b86828151811061114a5761114a6114bc565b60200260200101518461115d9190611587565b9050600085611174670de0b6b3a7640000846114e8565b61117e9190611515565b90506000816000036111995750670de0b6b3a76400006111d5565b60006111a483610a33565b905080156111ce57806111bf670de0b6b3a7640000806114e8565b6111c99190611515565b6111d1565b60005b9150505b6111df8186611574565b945050505080806111ef9061155b565b9150506110e7565b5060006112038261123b565b90506000670de0b6b3a764000061121a83876114e8565b6112249190611515565b90506112308185611574565b979650505050505050565b60008082116112895760405162461bcd60e51b81526020600482015260166024820152756c6e3a2078206d75737420626520706f73697469766560501b604482015260640160405180910390fd5b600082815b6112a1670de0b6b3a764000060026114e8565b82106112c6576112b2600283611515565b9150806112be8161155b565b91505061128e565b670de0b6b3a76400008210156112f5576112e18260026114e8565b9150806112ed816115ce565b9150506112c6565b6000611309670de0b6b3a764000084611587565b90508060015b600a811161138c576113226002826115ba565b600103611344576113338183611515565b61133d9087611574565b955061135b565b61134e8183611515565b6113589087611587565b95505b670de0b6b3a764000061136e84846114e8565b6113789190611515565b9150806113848161155b565b91505061130f565b5067099e8db03256ce5d6113a081856114e8565b610b739087611574565b80356001600160a01b03811681146113c157600080fd5b919050565b600080604083850312156113d957600080fd5b6113e2836113aa565b946020939093013593505050565b60006020828403121561140257600080fd5b5035919050565b60006020828403121561141b57600080fd5b611424826113aa565b9392505050565b600081518084526020808501945080840160005b8381101561145b5781518752958201959082019060010161143f565b509495945050505050565b602081526000611424602083018461142b565b6000806040838503121561148c57600080fd5b50508035926020909101359150565b8281526040602082015260006114b4604083018461142b565b949350505050565b634e487b7160e01b600052603260045260246000fd5b634e487b7160e01b600052601160045260246000fd5b80820281158282048414176104f1576104f16114d2565b634e487b7160e01b600052601260045260246000fd5b600082611524576115246114ff565b500490565b634e487b7160e01b600052604160045260246000fd5b6000600160ff1b8201611554576115546114d2565b5060000390565b60006001820161156d5761156d6114d2565b5060010190565b808201808211156104f1576104f16114d2565b818103818111156104f1576104f16114d2565b8181036000831280158383131683831282161715610632576106326114d2565b6000826115c9576115c96114ff565b500690565b6000816115dd576115dd6114d2565b50600019019056fea2646970667358221220e8387cc9947358a71fdbbb348d98637e9e538608118f86b9e51a60dbdff6cee464736f6c63430008140033","opcodes":"PUSH1 0xE0 PUSH1 0x40 MSTORE PUSH1 0x40 MLOAD PUSH3 0x1DDC CODESIZE SUB DUP1 PUSH3 0x1DDC DUP4 CODECOPY DUP2 ADD PUSH1 0x40 DUP2 SWAP1 MSTORE PUSH3 0x26 SWAP2 PUSH3 0x5D6 JUMP JUMPDEST PUSH1 0x2 DUP4 LT DUP1 PUSH3 0x36 JUMPI POP PUSH1 0x5 DUP4 GT JUMPDEST ISZERO PUSH3 0x55 JUMPI PUSH1 0x40 MLOAD PUSH4 0x566F4317 PUSH1 0xE1 SHL DUP2 MSTORE PUSH1 0x4 ADD PUSH1 0x40 MLOAD DUP1 SWAP2 SUB SWAP1 REVERT JUMPDEST PUSH1 0x80 DUP4 SWAP1 MSTORE PUSH1 0xA0 DUP3 SWAP1 MSTORE PUSH1 0xC0 DUP2 SWAP1 MSTORE PUSH1 0x6 DUP1 SLOAD PUSH1 0x1 PUSH1 0x1 PUSH1 0xA0 SHL SUB NOT AND CALLER OR SWAP1 SSTORE DUP3 PUSH1 0x1 PUSH1 0x1 PUSH1 0x40 SHL SUB DUP2 GT ISZERO PUSH3 0x91 JUMPI PUSH3 0x91 PUSH3 0x605 JUMP JUMPDEST PUSH1 0x40 MLOAD SWAP1 DUP1 DUP3 MSTORE DUP1 PUSH1 0x20 MUL PUSH1 0x20 ADD DUP3 ADD PUSH1 0x40 MSTORE DUP1 ISZERO PUSH3 0xBB JUMPI DUP2 PUSH1 0x20 ADD PUSH1 0x20 DUP3 MUL DUP1 CALLDATASIZE DUP4 CALLDATACOPY ADD SWAP1 POP JUMPDEST POP DUP1 MLOAD PUSH3 0xD2 SWAP2 PUSH1 0x0 SWAP2 PUSH1 0x20 SWAP1 SWAP2 ADD SWAP1 PUSH3 0x56F JUMP JUMPDEST POP DUP3 PUSH1 0x1 PUSH1 0x1 PUSH1 0x40 SHL SUB DUP2 GT ISZERO PUSH3 0xEE JUMPI PUSH3 0xEE PUSH3 0x605 JUMP JUMPDEST PUSH1 0x40 MLOAD SWAP1 DUP1 DUP3 MSTORE DUP1 PUSH1 0x20 MUL PUSH1 0x20 ADD DUP3 ADD PUSH1 0x40 MSTORE DUP1 ISZERO PUSH3 0x118 JUMPI DUP2 PUSH1 0x20 ADD PUSH1 0x20 DUP3 MUL DUP1 CALLDATASIZE DUP4 CALLDATACOPY ADD SWAP1 POP JUMPDEST POP CALLER PUSH1 0x0 SWAP1 DUP2 MSTORE PUSH1 0x3 PUSH1 0x20 SWAP1 DUP2 MSTORE PUSH1 0x40 SWAP1 SWAP2 KECCAK256 DUP3 MLOAD PUSH3 0x13F SWAP4 SWAP2 SWAP3 SWAP2 SWAP1 SWAP2 ADD SWAP1 PUSH3 0x56F JUMP JUMPDEST POP PUSH1 0x0 PUSH3 0x14C PUSH3 0x1FA JUMP JUMPDEST SWAP1 POP PUSH1 0x0 PUSH3 0x16E PUSH3 0x168 PUSH8 0xDE0B6B3A7640000 DUP8 PUSH3 0x631 JUMP JUMPDEST PUSH3 0x261 JUMP JUMPDEST SWAP1 POP PUSH1 0x0 PUSH8 0xDE0B6B3A7640000 PUSH3 0x187 DUP4 DUP6 PUSH3 0x631 JUMP JUMPDEST PUSH3 0x193 SWAP2 SWAP1 PUSH3 0x667 JUMP JUMPDEST SWAP1 POP DUP1 CALLVALUE EQ PUSH3 0x1B6 JUMPI PUSH1 0x40 MLOAD PUSH4 0x688013F1 PUSH1 0xE1 SHL DUP2 MSTORE PUSH1 0x4 ADD PUSH1 0x40 MLOAD DUP1 SWAP2 SUB SWAP1 REVERT JUMPDEST PUSH1 0x2 DUP2 SWAP1 SSTORE PUSH1 0x40 MLOAD DUP2 DUP2 MSTORE PUSH32 0xE15E5EABDC7A1A04B0DC94A2DAD6A7696E8F53C0D3F5B23B9280AA2CBD3F12DB SWAP1 PUSH1 0x20 ADD PUSH1 0x40 MLOAD DUP1 SWAP2 SUB SWAP1 LOG1 POP POP POP POP POP POP PUSH3 0x6F7 JUMP JUMPDEST PUSH1 0x0 DUP1 PUSH8 0xDE0B6B3A7640000 PUSH1 0x1 SLOAD PUSH1 0xC0 MLOAD PUSH3 0x218 SWAP2 SWAP1 PUSH3 0x631 JUMP JUMPDEST PUSH3 0x224 SWAP2 SWAP1 PUSH3 0x667 JUMP JUMPDEST SWAP1 POP PUSH1 0x0 PUSH3 0x233 DUP3 PUSH3 0x40C JUMP JUMPDEST SWAP1 POP PUSH8 0xDE0B6B3A7640000 DUP2 PUSH1 0xA0 MLOAD PUSH3 0x24E SWAP2 SWAP1 PUSH3 0x631 JUMP JUMPDEST PUSH3 0x25A SWAP2 SWAP1 PUSH3 0x667 JUMP JUMPDEST SWAP3 POP POP POP SWAP1 JUMP JUMPDEST PUSH1 0x0 DUP1 DUP3 GT PUSH3 0x2B7 JUMPI PUSH1 0x40 MLOAD PUSH3 0x461BCD PUSH1 0xE5 SHL DUP2 MSTORE PUSH1 0x20 PUSH1 0x4 DUP3 ADD MSTORE PUSH1 0x16 PUSH1 0x24 DUP3 ADD MSTORE PUSH32 0x6C6E3A2078206D75737420626520706F73697469766500000000000000000000 PUSH1 0x44 DUP3 ADD MSTORE PUSH1 0x64 ADD PUSH1 0x40 MLOAD DUP1 SWAP2 SUB SWAP1 REVERT JUMPDEST PUSH1 0x0 DUP3 DUP2 JUMPDEST PUSH3 0x2D1 PUSH8 0xDE0B6B3A7640000 PUSH1 0x2 PUSH3 0x631 JUMP JUMPDEST DUP3 LT PUSH3 0x2FC JUMPI PUSH3 0x2E5 PUSH1 0x2 DUP4 PUSH3 0x667 JUMP JUMPDEST SWAP2 POP DUP1 PUSH3 0x2F3 DUP2 PUSH3 0x67E JUMP JUMPDEST SWAP2 POP POP PUSH3 0x2BC JUMP JUMPDEST PUSH8 0xDE0B6B3A7640000 DUP3 LT ISZERO PUSH3 0x331 JUMPI PUSH3 0x31A DUP3 PUSH1 0x2 PUSH3 0x631 JUMP JUMPDEST SWAP2 POP DUP1 PUSH3 0x328 DUP2 PUSH3 0x69A JUMP JUMPDEST SWAP2 POP POP PUSH3 0x2FC JUMP JUMPDEST PUSH1 0x0 PUSH3 0x347 PUSH8 0xDE0B6B3A7640000 DUP5 PUSH3 0x6B4 JUMP JUMPDEST SWAP1 POP DUP1 PUSH1 0x1 JUMPDEST PUSH1 0xA DUP2 GT PUSH3 0x3DE JUMPI PUSH3 0x363 PUSH1 0x2 DUP3 PUSH3 0x6CA JUMP JUMPDEST PUSH1 0x1 SUB PUSH3 0x38B JUMPI PUSH3 0x377 DUP2 DUP4 PUSH3 0x667 JUMP JUMPDEST PUSH3 0x383 SWAP1 DUP8 PUSH3 0x6E1 JUMP JUMPDEST SWAP6 POP PUSH3 0x3A6 JUMP JUMPDEST PUSH3 0x397 DUP2 DUP4 PUSH3 0x667 JUMP JUMPDEST PUSH3 0x3A3 SWAP1 DUP8 PUSH3 0x6B4 JUMP JUMPDEST SWAP6 POP JUMPDEST PUSH8 0xDE0B6B3A7640000 PUSH3 0x3BB DUP5 DUP5 PUSH3 0x631 JUMP JUMPDEST PUSH3 0x3C7 SWAP2 SWAP1 PUSH3 0x667 JUMP JUMPDEST SWAP2 POP DUP1 PUSH3 0x3D5 DUP2 PUSH3 0x67E JUMP JUMPDEST SWAP2 POP POP PUSH3 0x34D JUMP JUMPDEST POP PUSH8 0x99E8DB03256CE5D PUSH3 0x3F4 DUP2 DUP6 PUSH3 0x631 JUMP JUMPDEST PUSH3 0x400 SWAP1 DUP8 PUSH3 0x6E1 JUMP JUMPDEST SWAP9 SWAP8 POP POP POP POP POP POP POP POP JUMP JUMPDEST PUSH1 0x0 DUP2 PUSH1 0x0 SUB PUSH3 0x426 JUMPI POP PUSH8 0xDE0B6B3A7640000 SWAP2 SWAP1 POP JUMP JUMPDEST PUSH3 0x43B PUSH8 0xDE0B6B3A7640000 PUSH1 0x32 PUSH3 0x631 JUMP JUMPDEST DUP3 LT PUSH3 0x44B JUMPI POP PUSH1 0x0 NOT SWAP2 SWAP1 POP JUMP JUMPDEST PUSH1 0x0 PUSH3 0x461 PUSH8 0xDE0B6B3A7640000 DUP5 PUSH3 0x667 JUMP JUMPDEST SWAP1 POP PUSH1 0x0 PUSH3 0x479 PUSH8 0xDE0B6B3A7640000 DUP6 PUSH3 0x6CA JUMP JUMPDEST SWAP1 POP PUSH8 0x25B946EBC0B36173 PUSH8 0xDE0B6B3A7640000 PUSH1 0x0 JUMPDEST DUP5 DUP2 LT ISZERO PUSH3 0x4D1 JUMPI PUSH8 0xDE0B6B3A7640000 PUSH3 0x4AE DUP5 DUP5 PUSH3 0x631 JUMP JUMPDEST PUSH3 0x4BA SWAP2 SWAP1 PUSH3 0x667 JUMP JUMPDEST SWAP2 POP DUP1 PUSH3 0x4C8 DUP2 PUSH3 0x67E JUMP JUMPDEST SWAP2 POP POP PUSH3 0x490 JUMP JUMPDEST POP PUSH8 0xDE0B6B3A7640000 DUP4 PUSH1 0x1 JUMPDEST PUSH1 0x14 DUP2 GT PUSH3 0x54D JUMPI PUSH3 0x4F4 DUP3 DUP5 PUSH3 0x6E1 JUMP JUMPDEST SWAP3 POP PUSH3 0x503 DUP2 PUSH1 0x1 PUSH3 0x6E1 JUMP JUMPDEST PUSH3 0x517 SWAP1 PUSH8 0xDE0B6B3A7640000 PUSH3 0x631 JUMP JUMPDEST PUSH3 0x523 DUP8 DUP5 PUSH3 0x631 JUMP JUMPDEST PUSH3 0x52F SWAP2 SWAP1 PUSH3 0x667 JUMP JUMPDEST SWAP2 POP DUP2 ISZERO PUSH3 0x54D JUMPI DUP1 PUSH3 0x544 DUP2 PUSH3 0x67E JUMP JUMPDEST SWAP2 POP POP PUSH3 0x4DF JUMP JUMPDEST POP PUSH8 0xDE0B6B3A7640000 PUSH3 0x563 DUP4 DUP6 PUSH3 0x631 JUMP JUMPDEST PUSH3 0x400 SWAP2 SWAP1 PUSH3 0x667 JUMP JUMPDEST DUP3 DUP1 SLOAD DUP3 DUP3 SSTORE SWAP1 PUSH1 0x0 MSTORE PUSH1 0x20 PUSH1 0x0 KECCAK256 SWAP1 DUP2 ADD SWAP3 DUP3 ISZERO PUSH3 0x5AD JUMPI SWAP2 PUSH1 0x20 MUL DUP3 ADD JUMPDEST DUP3 DUP2 GT ISZERO PUSH3 0x5AD JUMPI DUP3 MLOAD DUP3 SSTORE SWAP2 PUSH1 0x20 ADD SWAP2 SWAP1 PUSH1 0x1 ADD SWAP1 PUSH3 0x590 JUMP JUMPDEST POP PUSH3 0x5BB SWAP3 SWAP2 POP PUSH3 0x5BF JUMP JUMPDEST POP SWAP1 JUMP JUMPDEST JUMPDEST DUP1 DUP3 GT ISZERO PUSH3 0x5BB JUMPI PUSH1 0x0 DUP2 SSTORE PUSH1 0x1 ADD PUSH3 0x5C0 JUMP JUMPDEST PUSH1 0x0 DUP1 PUSH1 0x0 PUSH1 0x60 DUP5 DUP7 SUB SLT ISZERO PUSH3 0x5EC JUMPI PUSH1 0x0 DUP1 REVERT JUMPDEST DUP4 MLOAD SWAP3 POP PUSH1 0x20 DUP5 ADD MLOAD SWAP2 POP PUSH1 0x40 DUP5 ADD MLOAD SWAP1 POP SWAP3 POP SWAP3 POP SWAP3 JUMP JUMPDEST PUSH4 0x4E487B71 PUSH1 0xE0 SHL PUSH1 0x0 MSTORE PUSH1 0x41 PUSH1 0x4 MSTORE PUSH1 0x24 PUSH1 0x0 REVERT JUMPDEST PUSH4 0x4E487B71 PUSH1 0xE0 SHL PUSH1 0x0 MSTORE PUSH1 0x11 PUSH1 0x4 MSTORE PUSH1 0x24 PUSH1 0x0 REVERT JUMPDEST DUP1 DUP3 MUL DUP2 ISZERO DUP3 DUP3 DIV DUP5 EQ OR PUSH3 0x64B JUMPI PUSH3 0x64B PUSH3 0x61B JUMP JUMPDEST SWAP3 SWAP2 POP POP JUMP JUMPDEST PUSH4 0x4E487B71 PUSH1 0xE0 SHL PUSH1 0x0 MSTORE PUSH1 0x12 PUSH1 0x4 MSTORE PUSH1 0x24 PUSH1 0x0 REVERT JUMPDEST PUSH1 0x0 DUP3 PUSH3 0x679 JUMPI PUSH3 0x679 PUSH3 0x651 JUMP JUMPDEST POP DIV SWAP1 JUMP JUMPDEST PUSH1 0x0 PUSH1 0x1 DUP3 ADD PUSH3 0x693 JUMPI PUSH3 0x693 PUSH3 0x61B JUMP JUMPDEST POP PUSH1 0x1 ADD SWAP1 JUMP JUMPDEST PUSH1 0x0 DUP2 PUSH3 0x6AC JUMPI PUSH3 0x6AC PUSH3 0x61B JUMP JUMPDEST POP PUSH1 0x0 NOT ADD SWAP1 JUMP JUMPDEST DUP2 DUP2 SUB DUP2 DUP2 GT ISZERO PUSH3 0x64B JUMPI PUSH3 0x64B PUSH3 0x61B JUMP JUMPDEST PUSH1 0x0 DUP3 PUSH3 0x6DC JUMPI PUSH3 0x6DC PUSH3 0x651 JUMP JUMPDEST POP MOD SWAP1 JUMP JUMPDEST DUP1 DUP3 ADD DUP1 DUP3 GT ISZERO PUSH3 0x64B JUMPI PUSH3 0x64B PUSH3 0x61B JUMP JUMPDEST PUSH1 0x80 MLOAD PUSH1 0xA0 MLOAD PUSH1 0xC0 MLOAD PUSH2 0x161B PUSH3 0x7C1 PUSH1 0x0 CODECOPY PUSH1 0x0 DUP2 DUP2 PUSH2 0x2C9 ADD MSTORE DUP2 DUP2 PUSH2 0x35C ADD MSTORE PUSH2 0x508 ADD MSTORE PUSH1 0x0 DUP2 DUP2 PUSH2 0x192 ADD MSTORE DUP2 DUP2 PUSH2 0x33B ADD MSTORE PUSH2 0x559 ADD MSTORE PUSH1 0x0 DUP2 DUP2 PUSH2 0x207 ADD MSTORE DUP2 DUP2 PUSH2 0x31A ADD MSTORE DUP2 DUP2 PUSH2 0x42C ADD MSTORE DUP2 DUP2 PUSH2 0x5D2 ADD MSTORE DUP2 DUP2 PUSH2 0x80A ADD MSTORE DUP2 DUP2 PUSH2 0x888 ADD MSTORE DUP2 DUP2 PUSH2 0x8F0 ADD MSTORE DUP2 DUP2 PUSH2 0xB85 ADD MSTORE DUP2 DUP2 PUSH2 0xBF6 ADD MSTORE DUP2 DUP2 PUSH2 0xC2B ADD MSTORE DUP2 DUP2 PUSH2 0xC5F ADD MSTORE DUP2 DUP2 PUSH2 0xCE7 ADD MSTORE DUP2 DUP2 PUSH2 0xD63 ADD MSTORE DUP2 DUP2 PUSH2 0xDCB ADD MSTORE DUP2 DUP2 PUSH2 0xF07 ADD MSTORE DUP2 DUP2 PUSH2 0xF3B ADD MSTORE DUP2 DUP2 PUSH2 0xF9D ADD MSTORE DUP2 DUP2 PUSH2 0x106C ADD MSTORE PUSH2 0x10E9 ADD MSTORE PUSH2 0x161B PUSH1 0x0 RETURN INVALID PUSH1 0x80 PUSH1 0x40 MSTORE CALLVALUE DUP1 ISZERO PUSH2 0x10 JUMPI PUSH1 0x0 DUP1 REVERT JUMPDEST POP PUSH1 0x4 CALLDATASIZE LT PUSH2 0x121 JUMPI PUSH1 0x0 CALLDATALOAD PUSH1 0xE0 SHR DUP1 PUSH4 0x91A9648A GT PUSH2 0xAD JUMPI DUP1 PUSH4 0xB401FAF1 GT PUSH2 0x71 JUMPI DUP1 PUSH4 0xB401FAF1 EQ PUSH2 0x2AB JUMPI DUP1 PUSH4 0xBD9A548B EQ PUSH2 0x2B3 JUMPI DUP1 PUSH4 0xD8DFEB45 EQ PUSH2 0x2BB JUMPI DUP1 PUSH4 0xDB1D0FD5 EQ PUSH2 0x2C4 JUMPI DUP1 PUSH4 0xF46AA875 EQ PUSH2 0x2EB JUMPI PUSH1 0x0 DUP1 REVERT JUMPDEST DUP1 PUSH4 0x91A9648A EQ PUSH2 0x254 JUMPI DUP1 PUSH4 0x9B34AE03 EQ PUSH2 0x267 JUMPI DUP1 PUSH4 0xA1C51915 EQ PUSH2 0x270 JUMPI DUP1 PUSH4 0xA4125403 EQ PUSH2 0x278 JUMPI DUP1 PUSH4 0xAFD82FBA EQ PUSH2 0x28B JUMPI PUSH1 0x0 DUP1 REVERT JUMPDEST DUP1 PUSH4 0x5F81A57C GT PUSH2 0xF4 JUMPI DUP1 PUSH4 0x5F81A57C EQ PUSH2 0x1D1 JUMPI DUP1 PUSH4 0x63938202 EQ PUSH2 0x1DA JUMPI DUP1 PUSH4 0x6399D03D EQ PUSH2 0x1ED JUMPI DUP1 PUSH4 0x8767D64E EQ PUSH2 0x202 JUMPI DUP1 PUSH4 0x8DA5CB5B EQ PUSH2 0x229 JUMPI PUSH1 0x0 DUP1 REVERT JUMPDEST DUP1 PUSH4 0x23341A05 EQ PUSH2 0x126 JUMPI DUP1 PUSH4 0x2E0F2625 EQ PUSH2 0x170 JUMPI DUP1 PUSH4 0x3602175C EQ PUSH2 0x18D JUMPI DUP1 PUSH4 0x3F6FA655 EQ PUSH2 0x1B4 JUMPI JUMPDEST PUSH1 0x0 DUP1 REVERT JUMPDEST PUSH2 0x12E PUSH2 0x30C JUMP JUMPDEST PUSH1 0x40 DUP1 MLOAD SWAP9 DUP10 MSTORE PUSH1 0x20 DUP10 ADD SWAP8 SWAP1 SWAP8 MSTORE SWAP6 DUP8 ADD SWAP5 SWAP1 SWAP5 MSTORE PUSH1 0x60 DUP7 ADD SWAP3 SWAP1 SWAP3 MSTORE PUSH1 0x80 DUP6 ADD MSTORE PUSH1 0xA0 DUP5 ADD MSTORE ISZERO ISZERO PUSH1 0xC0 DUP4 ADD MSTORE PUSH1 0xE0 DUP3 ADD MSTORE PUSH2 0x100 ADD JUMPDEST PUSH1 0x40 MLOAD DUP1 SWAP2 SUB SWAP1 RETURN JUMPDEST PUSH2 0x17F PUSH8 0xDE0B6B3A7640000 DUP2 JUMP JUMPDEST PUSH1 0x40 MLOAD SWAP1 DUP2 MSTORE PUSH1 0x20 ADD PUSH2 0x167 JUMP JUMPDEST PUSH2 0x17F PUSH32 0x0 DUP2 JUMP JUMPDEST PUSH1 0x4 SLOAD PUSH2 0x1C1 SWAP1 PUSH1 0xFF AND DUP2 JUMP JUMPDEST PUSH1 0x40 MLOAD SWAP1 ISZERO ISZERO DUP2 MSTORE PUSH1 0x20 ADD PUSH2 0x167 JUMP JUMPDEST PUSH2 0x17F PUSH1 0x1 SLOAD DUP2 JUMP JUMPDEST PUSH2 0x17F PUSH2 0x1E8 CALLDATASIZE PUSH1 0x4 PUSH2 0x13C6 JUMP JUMPDEST PUSH2 0x3AA JUMP JUMPDEST PUSH2 0x200 PUSH2 0x1FB CALLDATASIZE PUSH1 0x4 PUSH2 0x13F0 JUMP JUMPDEST PUSH2 0x3DB JUMP JUMPDEST STOP JUMPDEST PUSH2 0x17F PUSH32 0x0 DUP2 JUMP JUMPDEST PUSH1 0x6 SLOAD PUSH2 0x23C SWAP1 PUSH1 0x1 PUSH1 0x1 PUSH1 0xA0 SHL SUB AND DUP2 JUMP JUMPDEST PUSH1 0x40 MLOAD PUSH1 0x1 PUSH1 0x1 PUSH1 0xA0 SHL SUB SWAP1 SWAP2 AND DUP2 MSTORE PUSH1 0x20 ADD PUSH2 0x167 JUMP JUMPDEST PUSH2 0x17F PUSH2 0x262 CALLDATASIZE PUSH1 0x4 PUSH2 0x13C6 JUMP JUMPDEST PUSH2 0x4AA JUMP JUMPDEST PUSH2 0x17F PUSH1 0x5 SLOAD DUP2 JUMP JUMPDEST PUSH2 0x17F PUSH2 0x4F7 JUMP JUMPDEST PUSH2 0x17F PUSH2 0x286 CALLDATASIZE PUSH1 0x4 PUSH2 0x13F0 JUMP JUMPDEST PUSH2 0x58E JUMP JUMPDEST PUSH2 0x29E PUSH2 0x299 CALLDATASIZE PUSH1 0x4 PUSH2 0x1409 JUMP JUMPDEST PUSH2 0x5AF JUMP JUMPDEST PUSH1 0x40 MLOAD PUSH2 0x167 SWAP2 SWAP1 PUSH2 0x1466 JUMP JUMPDEST PUSH2 0x200 PUSH2 0x6A3 JUMP JUMPDEST PUSH2 0x29E PUSH2 0x7A4 JUMP JUMPDEST PUSH2 0x17F PUSH1 0x2 SLOAD DUP2 JUMP JUMPDEST PUSH2 0x17F PUSH32 0x0 DUP2 JUMP JUMPDEST PUSH2 0x2FE PUSH2 0x2F9 CALLDATASIZE PUSH1 0x4 PUSH2 0x1479 JUMP JUMPDEST PUSH2 0x804 JUMP JUMPDEST PUSH1 0x40 MLOAD PUSH2 0x167 SWAP3 SWAP2 SWAP1 PUSH2 0x149B JUMP JUMPDEST PUSH1 0x0 DUP1 PUSH1 0x0 DUP1 PUSH1 0x0 DUP1 PUSH1 0x0 DUP1 PUSH32 0x0 PUSH32 0x0 PUSH32 0x0 PUSH2 0x383 PUSH2 0x4F7 JUMP JUMPDEST PUSH1 0x1 SLOAD PUSH1 0x2 SLOAD PUSH1 0x4 SLOAD PUSH1 0x5 SLOAD SWAP7 SWAP16 SWAP6 SWAP15 POP SWAP4 SWAP13 POP SWAP2 SWAP11 POP SWAP9 POP SWAP7 POP PUSH1 0xFF AND SWAP5 POP SWAP1 SWAP3 POP SWAP1 POP JUMP JUMPDEST PUSH1 0x3 PUSH1 0x20 MSTORE DUP2 PUSH1 0x0 MSTORE PUSH1 0x40 PUSH1 0x0 KECCAK256 DUP2 DUP2 SLOAD DUP2 LT PUSH2 0x3C6 JUMPI PUSH1 0x0 DUP1 REVERT JUMPDEST SWAP1 PUSH1 0x0 MSTORE PUSH1 0x20 PUSH1 0x0 KECCAK256 ADD PUSH1 0x0 SWAP2 POP SWAP2 POP POP SLOAD DUP2 JUMP JUMPDEST PUSH1 0x6 SLOAD PUSH1 0x1 PUSH1 0x1 PUSH1 0xA0 SHL SUB AND CALLER EQ PUSH2 0x406 JUMPI PUSH1 0x40 MLOAD PUSH4 0x5FC483C5 PUSH1 0xE0 SHL DUP2 MSTORE PUSH1 0x4 ADD PUSH1 0x40 MLOAD DUP1 SWAP2 SUB SWAP1 REVERT JUMPDEST PUSH1 0x4 SLOAD PUSH1 0xFF AND ISZERO PUSH2 0x42A JUMPI PUSH1 0x40 MLOAD PUSH4 0xAA43CB2D PUSH1 0xE0 SHL DUP2 MSTORE PUSH1 0x4 ADD PUSH1 0x40 MLOAD DUP1 SWAP2 SUB SWAP1 REVERT JUMPDEST PUSH32 0x0 DUP2 LT PUSH2 0x46A JUMPI PUSH1 0x40 MLOAD PUSH4 0xC74A206D PUSH1 0xE0 SHL DUP2 MSTORE PUSH1 0x4 ADD PUSH1 0x40 MLOAD DUP1 SWAP2 SUB SWAP1 REVERT JUMPDEST PUSH1 0x4 DUP1 SLOAD PUSH1 0xFF NOT AND PUSH1 0x1 OR SWAP1 SSTORE PUSH1 0x5 DUP2 SWAP1 SSTORE PUSH1 0x40 MLOAD DUP2 SWAP1 PUSH32 0x93608ECBCF057462DA63F5AEF413CE7F78C5E1B3BB51859D77A40845ECE2BFC3 SWAP1 PUSH1 0x0 SWAP1 LOG2 POP JUMP JUMPDEST PUSH1 0x1 PUSH1 0x1 PUSH1 0xA0 SHL SUB DUP3 AND PUSH1 0x0 SWAP1 DUP2 MSTORE PUSH1 0x3 PUSH1 0x20 MSTORE PUSH1 0x40 DUP2 KECCAK256 DUP1 SLOAD PUSH2 0x4CF JUMPI PUSH1 0x0 PUSH2 0x4ED JUMP JUMPDEST DUP1 DUP4 DUP2 SLOAD DUP2 LT PUSH2 0x4E1 JUMPI PUSH2 0x4E1 PUSH2 0x14BC JUMP JUMPDEST SWAP1 PUSH1 0x0 MSTORE PUSH1 0x20 PUSH1 0x0 KECCAK256 ADD SLOAD JUMPDEST SWAP2 POP POP JUMPDEST SWAP3 SWAP2 POP POP JUMP JUMPDEST PUSH1 0x0 DUP1 PUSH8 0xDE0B6B3A7640000 PUSH1 0x1 SLOAD PUSH32 0x0 PUSH2 0x531 SWAP2 SWAP1 PUSH2 0x14E8 JUMP JUMPDEST PUSH2 0x53B SWAP2 SWAP1 PUSH2 0x1515 JUMP JUMPDEST SWAP1 POP PUSH1 0x0 PUSH2 0x548 DUP3 PUSH2 0xA33 JUMP JUMPDEST SWAP1 POP PUSH8 0xDE0B6B3A7640000 PUSH2 0x57D DUP3 PUSH32 0x0 PUSH2 0x14E8 JUMP JUMPDEST PUSH2 0x587 SWAP2 SWAP1 PUSH2 0x1515 JUMP JUMPDEST SWAP3 POP POP POP SWAP1 JUMP JUMPDEST PUSH1 0x0 DUP2 DUP2 SLOAD DUP2 LT PUSH2 0x59E JUMPI PUSH1 0x0 DUP1 REVERT JUMPDEST PUSH1 0x0 SWAP2 DUP3 MSTORE PUSH1 0x20 SWAP1 SWAP2 KECCAK256 ADD SLOAD SWAP1 POP DUP2 JUMP JUMPDEST PUSH1 0x1 PUSH1 0x1 PUSH1 0xA0 SHL SUB DUP2 AND PUSH1 0x0 SWAP1 DUP2 MSTORE PUSH1 0x3 PUSH1 0x20 MSTORE PUSH1 0x40 DUP2 KECCAK256 SLOAD PUSH1 0x60 SWAP2 SUB PUSH2 0x639 JUMPI PUSH32 0x0 PUSH8 0xFFFFFFFFFFFFFFFF DUP2 GT ISZERO PUSH2 0x609 JUMPI PUSH2 0x609 PUSH2 0x1529 JUMP JUMPDEST PUSH1 0x40 MLOAD SWAP1 DUP1 DUP3 MSTORE DUP1 PUSH1 0x20 MUL PUSH1 0x20 ADD DUP3 ADD PUSH1 0x40 MSTORE DUP1 ISZERO PUSH2 0x632 JUMPI DUP2 PUSH1 0x20 ADD PUSH1 0x20 DUP3 MUL DUP1 CALLDATASIZE DUP4 CALLDATACOPY ADD SWAP1 POP JUMPDEST POP SWAP3 SWAP2 POP POP JUMP JUMPDEST PUSH1 0x1 PUSH1 0x1 PUSH1 0xA0 SHL SUB DUP3 AND PUSH1 0x0 SWAP1 DUP2 MSTORE PUSH1 0x3 PUSH1 0x20 SWAP1 DUP2 MSTORE PUSH1 0x40 SWAP2 DUP3 SWAP1 KECCAK256 DUP1 SLOAD DUP4 MLOAD DUP2 DUP5 MUL DUP2 ADD DUP5 ADD SWAP1 SWAP5 MSTORE DUP1 DUP5 MSTORE SWAP1 SWAP2 DUP4 ADD DUP3 DUP3 DUP1 ISZERO PUSH2 0x697 JUMPI PUSH1 0x20 MUL DUP3 ADD SWAP2 SWAP1 PUSH1 0x0 MSTORE PUSH1 0x20 PUSH1 0x0 KECCAK256 SWAP1 JUMPDEST DUP2 SLOAD DUP2 MSTORE PUSH1 0x20 ADD SWAP1 PUSH1 0x1 ADD SWAP1 DUP1 DUP4 GT PUSH2 0x683 JUMPI JUMPDEST POP POP POP POP POP SWAP1 POP SWAP2 SWAP1 POP JUMP JUMPDEST PUSH1 0x4 SLOAD PUSH1 0xFF AND PUSH2 0x6C6 JUMPI PUSH1 0x40 MLOAD PUSH4 0x9F4A6489 PUSH1 0xE0 SHL DUP2 MSTORE PUSH1 0x4 ADD PUSH1 0x40 MLOAD DUP1 SWAP2 SUB SWAP1 REVERT JUMPDEST CALLER PUSH1 0x0 SWAP1 DUP2 MSTORE PUSH1 0x3 PUSH1 0x20 MSTORE PUSH1 0x40 DUP2 KECCAK256 SLOAD SWAP1 SUB PUSH2 0x6F5 JUMPI PUSH1 0x40 MLOAD PUSH4 0x39996567 PUSH1 0xE0 SHL DUP2 MSTORE PUSH1 0x4 ADD PUSH1 0x40 MLOAD DUP1 SWAP2 SUB SWAP1 REVERT JUMPDEST CALLER PUSH1 0x0 SWAP1 DUP2 MSTORE PUSH1 0x3 PUSH1 0x20 MSTORE PUSH1 0x40 DUP2 KECCAK256 PUSH1 0x5 SLOAD DUP2 SLOAD DUP2 LT PUSH2 0x717 JUMPI PUSH2 0x717 PUSH2 0x14BC JUMP JUMPDEST SWAP1 PUSH1 0x0 MSTORE PUSH1 0x20 PUSH1 0x0 KECCAK256 ADD SLOAD SWAP1 POP DUP1 PUSH1 0x0 SUB PUSH2 0x745 JUMPI PUSH1 0x40 MLOAD PUSH4 0x39996567 PUSH1 0xE0 SHL DUP2 MSTORE PUSH1 0x4 ADD PUSH1 0x40 MLOAD DUP1 SWAP2 SUB SWAP1 REVERT JUMPDEST CALLER PUSH1 0x0 SWAP1 DUP2 MSTORE PUSH1 0x3 PUSH1 0x20 MSTORE PUSH1 0x40 DUP2 KECCAK256 PUSH1 0x5 SLOAD DUP2 SLOAD DUP2 LT PUSH2 0x767 JUMPI PUSH2 0x767 PUSH2 0x14BC JUMP JUMPDEST PUSH1 0x0 SWAP2 DUP3 MSTORE PUSH1 0x20 DUP3 KECCAK256 ADD SWAP2 SWAP1 SWAP2 SSTORE PUSH1 0x40 MLOAD CALLER SWAP2 DUP4 ISZERO PUSH2 0x8FC MUL SWAP2 DUP5 SWAP2 DUP2 DUP2 DUP2 DUP6 DUP9 DUP9 CALL SWAP4 POP POP POP POP ISZERO DUP1 ISZERO PUSH2 0x7A0 JUMPI RETURNDATASIZE PUSH1 0x0 DUP1 RETURNDATACOPY RETURNDATASIZE PUSH1 0x0 REVERT JUMPDEST POP POP JUMP JUMPDEST PUSH1 0x60 PUSH2 0x7FF PUSH1 0x0 DUP1 SLOAD DUP1 PUSH1 0x20 MUL PUSH1 0x20 ADD PUSH1 0x40 MLOAD SWAP1 DUP2 ADD PUSH1 0x40 MSTORE DUP1 SWAP3 SWAP2 SWAP1 DUP2 DUP2 MSTORE PUSH1 0x20 ADD DUP3 DUP1 SLOAD DUP1 ISZERO PUSH2 0x7F5 JUMPI PUSH1 0x20 MUL DUP3 ADD SWAP2 SWAP1 PUSH1 0x0 MSTORE PUSH1 0x20 PUSH1 0x0 KECCAK256 SWAP1 JUMPDEST DUP2 SLOAD DUP2 MSTORE PUSH1 0x20 ADD SWAP1 PUSH1 0x1 ADD SWAP1 DUP1 DUP4 GT PUSH2 0x7E1 JUMPI JUMPDEST POP POP POP POP POP PUSH2 0xB7F JUMP JUMPDEST SWAP1 POP SWAP1 JUMP JUMPDEST PUSH1 0x0 PUSH1 0x60 PUSH32 0x0 DUP5 LT PUSH2 0x848 JUMPI PUSH1 0x40 MLOAD PUSH4 0xC74A206D PUSH1 0xE0 SHL DUP2 MSTORE PUSH1 0x4 ADD PUSH1 0x40 MLOAD DUP1 SWAP2 SUB SWAP1 REVERT JUMPDEST DUP3 PUSH1 0x0 SUB PUSH2 0x869 JUMPI PUSH1 0x40 MLOAD PUSH4 0x5AA5613 PUSH1 0xE1 SHL DUP2 MSTORE PUSH1 0x4 ADD PUSH1 0x40 MLOAD DUP1 SWAP2 SUB SWAP1 REVERT JUMPDEST PUSH1 0x0 DUP1 DUP5 SGT PUSH2 0x880 JUMPI PUSH2 0x87B DUP5 PUSH2 0x153F JUMP JUMPDEST PUSH2 0x882 JUMP JUMPDEST DUP4 JUMPDEST SWAP1 POP PUSH1 0x0 PUSH32 0x0 PUSH8 0xFFFFFFFFFFFFFFFF DUP2 GT ISZERO PUSH2 0x8BF JUMPI PUSH2 0x8BF PUSH2 0x1529 JUMP JUMPDEST PUSH1 0x40 MLOAD SWAP1 DUP1 DUP3 MSTORE DUP1 PUSH1 0x20 MUL PUSH1 0x20 ADD DUP3 ADD PUSH1 0x40 MSTORE DUP1 ISZERO PUSH2 0x8E8 JUMPI DUP2 PUSH1 0x20 ADD PUSH1 0x20 DUP3 MUL DUP1 CALLDATASIZE DUP4 CALLDATACOPY ADD SWAP1 POP JUMPDEST POP SWAP1 POP PUSH1 0x0 JUMPDEST PUSH32 0x0 DUP2 LT ISZERO PUSH2 0x963 JUMPI PUSH1 0x0 DUP2 DUP2 SLOAD DUP2 LT PUSH2 0x929 JUMPI PUSH2 0x929 PUSH2 0x14BC JUMP JUMPDEST SWAP1 PUSH1 0x0 MSTORE PUSH1 0x20 PUSH1 0x0 KECCAK256 ADD SLOAD DUP3 DUP3 DUP2 MLOAD DUP2 LT PUSH2 0x946 JUMPI PUSH2 0x946 PUSH2 0x14BC JUMP JUMPDEST PUSH1 0x20 SWAP1 DUP2 MUL SWAP2 SWAP1 SWAP2 ADD ADD MSTORE DUP1 PUSH2 0x95B DUP2 PUSH2 0x155B JUMP JUMPDEST SWAP2 POP POP PUSH2 0x8EE JUMP JUMPDEST POP PUSH1 0x0 DUP6 SGT ISZERO PUSH2 0x99C JUMPI DUP2 DUP2 DUP8 DUP2 MLOAD DUP2 LT PUSH2 0x980 JUMPI PUSH2 0x980 PUSH2 0x14BC JUMP JUMPDEST PUSH1 0x20 MUL PUSH1 0x20 ADD ADD DUP2 DUP2 MLOAD PUSH2 0x994 SWAP2 SWAP1 PUSH2 0x1574 JUMP JUMPDEST SWAP1 MSTORE POP PUSH2 0xA01 JUMP JUMPDEST DUP2 DUP2 DUP8 DUP2 MLOAD DUP2 LT PUSH2 0x9AF JUMPI PUSH2 0x9AF PUSH2 0x14BC JUMP JUMPDEST PUSH1 0x20 MUL PUSH1 0x20 ADD ADD MLOAD LT ISZERO PUSH2 0x9D6 JUMPI PUSH1 0x40 MLOAD PUSH4 0x39996567 PUSH1 0xE0 SHL DUP2 MSTORE PUSH1 0x4 ADD PUSH1 0x40 MLOAD DUP1 SWAP2 SUB SWAP1 REVERT JUMPDEST DUP2 DUP2 DUP8 DUP2 MLOAD DUP2 LT PUSH2 0x9E9 JUMPI PUSH2 0x9E9 PUSH2 0x14BC JUMP JUMPDEST PUSH1 0x20 MUL PUSH1 0x20 ADD ADD DUP2 DUP2 MLOAD PUSH2 0x9FD SWAP2 SWAP1 PUSH2 0x1587 JUMP JUMPDEST SWAP1 MSTORE POP JUMPDEST PUSH1 0x0 PUSH2 0xA0C DUP3 PUSH2 0x1037 JUMP JUMPDEST SWAP1 POP PUSH1 0x2 SLOAD DUP2 PUSH2 0xA1C SWAP2 SWAP1 PUSH2 0x159A JUMP JUMPDEST SWAP5 POP PUSH2 0xA27 DUP3 PUSH2 0xB7F JUMP JUMPDEST SWAP4 POP POP POP POP SWAP3 POP SWAP3 SWAP1 POP JUMP JUMPDEST PUSH1 0x0 DUP2 PUSH1 0x0 SUB PUSH2 0xA4C JUMPI POP PUSH8 0xDE0B6B3A7640000 SWAP2 SWAP1 POP JUMP JUMPDEST PUSH2 0xA5F PUSH8 0xDE0B6B3A7640000 PUSH1 0x32 PUSH2 0x14E8 JUMP JUMPDEST DUP3 LT PUSH2 0xA6E JUMPI POP PUSH1 0x0 NOT SWAP2 SWAP1 POP JUMP JUMPDEST PUSH1 0x0 PUSH2 0xA82 PUSH8 0xDE0B6B3A7640000 DUP5 PUSH2 0x1515 JUMP JUMPDEST SWAP1 POP PUSH1 0x0 PUSH2 0xA98 PUSH8 0xDE0B6B3A7640000 DUP6 PUSH2 0x15BA JUMP JUMPDEST SWAP1 POP PUSH8 0x25B946EBC0B36173 PUSH8 0xDE0B6B3A7640000 PUSH1 0x0 JUMPDEST DUP5 DUP2 LT ISZERO PUSH2 0xAE8 JUMPI PUSH8 0xDE0B6B3A7640000 PUSH2 0xACA DUP5 DUP5 PUSH2 0x14E8 JUMP JUMPDEST PUSH2 0xAD4 SWAP2 SWAP1 PUSH2 0x1515 JUMP JUMPDEST SWAP2 POP DUP1 PUSH2 0xAE0 DUP2 PUSH2 0x155B JUMP JUMPDEST SWAP2 POP POP PUSH2 0xAAF JUMP JUMPDEST POP PUSH8 0xDE0B6B3A7640000 DUP4 PUSH1 0x1 JUMPDEST PUSH1 0x14 DUP2 GT PUSH2 0xB55 JUMPI PUSH2 0xB08 DUP3 DUP5 PUSH2 0x1574 JUMP JUMPDEST SWAP3 POP PUSH2 0xB15 DUP2 PUSH1 0x1 PUSH2 0x1574 JUMP JUMPDEST PUSH2 0xB27 SWAP1 PUSH8 0xDE0B6B3A7640000 PUSH2 0x14E8 JUMP JUMPDEST PUSH2 0xB31 DUP8 DUP5 PUSH2 0x14E8 JUMP JUMPDEST PUSH2 0xB3B SWAP2 SWAP1 PUSH2 0x1515 JUMP JUMPDEST SWAP2 POP DUP2 ISZERO PUSH2 0xB55 JUMPI DUP1 PUSH2 0xB4D DUP2 PUSH2 0x155B JUMP JUMPDEST SWAP2 POP POP PUSH2 0xAF6 JUMP JUMPDEST POP PUSH8 0xDE0B6B3A7640000 PUSH2 0xB69 DUP4 DUP6 PUSH2 0x14E8 JUMP JUMPDEST PUSH2 0xB73 SWAP2 SWAP1 PUSH2 0x1515 JUMP JUMPDEST SWAP9 SWAP8 POP POP POP POP POP POP POP POP JUMP JUMPDEST PUSH1 0x60 PUSH1 0x0 PUSH32 0x0 PUSH8 0xFFFFFFFFFFFFFFFF DUP2 GT ISZERO PUSH2 0xBBC JUMPI PUSH2 0xBBC PUSH2 0x1529 JUMP JUMPDEST PUSH1 0x40 MLOAD SWAP1 DUP1 DUP3 MSTORE DUP1 PUSH1 0x20 MUL PUSH1 0x20 ADD DUP3 ADD PUSH1 0x40 MSTORE DUP1 ISZERO PUSH2 0xBE5 JUMPI DUP2 PUSH1 0x20 ADD PUSH1 0x20 DUP3 MUL DUP1 CALLDATASIZE DUP4 CALLDATACOPY ADD SWAP1 POP JUMPDEST POP SWAP1 POP PUSH1 0x0 PUSH2 0xBF2 PUSH2 0x4F7 JUMP JUMPDEST SWAP1 POP PUSH32 0x0 ISZERO DUP1 PUSH2 0xC1F JUMPI POP DUP1 ISZERO JUMPDEST ISZERO PUSH2 0xCBF JUMPI PUSH1 0x0 PUSH2 0xC58 PUSH32 0x0 PUSH8 0xDE0B6B3A7640000 PUSH2 0x1515 JUMP JUMPDEST SWAP1 POP PUSH1 0x0 JUMPDEST PUSH32 0x0 DUP2 LT ISZERO PUSH2 0xCB5 JUMPI DUP2 DUP5 DUP3 DUP2 MLOAD DUP2 LT PUSH2 0xC98 JUMPI PUSH2 0xC98 PUSH2 0x14BC JUMP JUMPDEST PUSH1 0x20 SWAP1 DUP2 MUL SWAP2 SWAP1 SWAP2 ADD ADD MSTORE DUP1 PUSH2 0xCAD DUP2 PUSH2 0x155B JUMP JUMPDEST SWAP2 POP POP PUSH2 0xC5D JUMP JUMPDEST POP SWAP2 SWAP5 SWAP4 POP POP POP POP JUMP JUMPDEST PUSH1 0x0 DUP5 PUSH1 0x0 DUP2 MLOAD DUP2 LT PUSH2 0xCD4 JUMPI PUSH2 0xCD4 PUSH2 0x14BC JUMP JUMPDEST PUSH1 0x20 MUL PUSH1 0x20 ADD ADD MLOAD SWAP1 POP PUSH1 0x0 PUSH1 0x1 SWAP1 POP JUMPDEST PUSH32 0x0 DUP2 LT ISZERO PUSH2 0xD5D JUMPI DUP2 DUP7 DUP3 DUP2 MLOAD DUP2 LT PUSH2 0xD20 JUMPI PUSH2 0xD20 PUSH2 0x14BC JUMP JUMPDEST PUSH1 0x20 MUL PUSH1 0x20 ADD ADD MLOAD GT ISZERO PUSH2 0xD4B JUMPI DUP6 DUP2 DUP2 MLOAD DUP2 LT PUSH2 0xD40 JUMPI PUSH2 0xD40 PUSH2 0x14BC JUMP JUMPDEST PUSH1 0x20 MUL PUSH1 0x20 ADD ADD MLOAD SWAP2 POP JUMPDEST DUP1 PUSH2 0xD55 DUP2 PUSH2 0x155B JUMP JUMPDEST SWAP2 POP POP PUSH2 0xCE5 JUMP JUMPDEST POP PUSH1 0x0 DUP1 PUSH32 0x0 PUSH8 0xFFFFFFFFFFFFFFFF DUP2 GT ISZERO PUSH2 0xD9A JUMPI PUSH2 0xD9A PUSH2 0x1529 JUMP JUMPDEST PUSH1 0x40 MLOAD SWAP1 DUP1 DUP3 MSTORE DUP1 PUSH1 0x20 MUL PUSH1 0x20 ADD DUP3 ADD PUSH1 0x40 MSTORE DUP1 ISZERO PUSH2 0xDC3 JUMPI DUP2 PUSH1 0x20 ADD PUSH1 0x20 DUP3 MUL DUP1 CALLDATASIZE DUP4 CALLDATACOPY ADD SWAP1 POP JUMPDEST POP SWAP1 POP PUSH1 0x0 JUMPDEST PUSH32 0x0 DUP2 LT ISZERO PUSH2 0xEF7 JUMPI PUSH1 0x0 DUP9 DUP3 DUP2 MLOAD DUP2 LT PUSH2 0xE05 JUMPI PUSH2 0xE05 PUSH2 0x14BC JUMP JUMPDEST PUSH1 0x20 MUL PUSH1 0x20 ADD ADD MLOAD DUP6 GT PUSH2 0xE1A JUMPI PUSH1 0x0 PUSH2 0xE3F JUMP JUMPDEST DUP9 DUP3 DUP2 MLOAD DUP2 LT PUSH2 0xE2C JUMPI PUSH2 0xE2C PUSH2 0x14BC JUMP JUMPDEST PUSH1 0x20 MUL PUSH1 0x20 ADD ADD MLOAD DUP6 PUSH2 0xE3F SWAP2 SWAP1 PUSH2 0x1587 JUMP JUMPDEST SWAP1 POP PUSH1 0x0 DUP7 PUSH2 0xE56 PUSH8 0xDE0B6B3A7640000 DUP5 PUSH2 0x14E8 JUMP JUMPDEST PUSH2 0xE60 SWAP2 SWAP1 PUSH2 0x1515 JUMP JUMPDEST SWAP1 POP PUSH1 0x0 DUP2 PUSH1 0x0 SUB PUSH2 0xE7B JUMPI POP PUSH8 0xDE0B6B3A7640000 PUSH2 0xEB7 JUMP JUMPDEST PUSH1 0x0 PUSH2 0xE86 DUP4 PUSH2 0xA33 JUMP JUMPDEST SWAP1 POP DUP1 ISZERO PUSH2 0xEB0 JUMPI DUP1 PUSH2 0xEA1 PUSH8 0xDE0B6B3A7640000 DUP1 PUSH2 0x14E8 JUMP JUMPDEST PUSH2 0xEAB SWAP2 SWAP1 PUSH2 0x1515 JUMP JUMPDEST PUSH2 0xEB3 JUMP JUMPDEST PUSH1 0x0 JUMPDEST SWAP2 POP POP JUMPDEST DUP1 DUP6 DUP6 DUP2 MLOAD DUP2 LT PUSH2 0xECA JUMPI PUSH2 0xECA PUSH2 0x14BC JUMP JUMPDEST PUSH1 0x20 SWAP1 DUP2 MUL SWAP2 SWAP1 SWAP2 ADD ADD MSTORE PUSH2 0xEDF DUP2 DUP8 PUSH2 0x1574 JUMP JUMPDEST SWAP6 POP POP POP POP DUP1 DUP1 PUSH2 0xEEF SWAP1 PUSH2 0x155B JUMP JUMPDEST SWAP2 POP POP PUSH2 0xDC9 JUMP JUMPDEST POP DUP2 PUSH1 0x0 SUB PUSH2 0xF98 JUMPI PUSH1 0x0 PUSH2 0xF34 PUSH32 0x0 PUSH8 0xDE0B6B3A7640000 PUSH2 0x1515 JUMP JUMPDEST SWAP1 POP PUSH1 0x0 JUMPDEST PUSH32 0x0 DUP2 LT ISZERO PUSH2 0xF91 JUMPI DUP2 DUP8 DUP3 DUP2 MLOAD DUP2 LT PUSH2 0xF74 JUMPI PUSH2 0xF74 PUSH2 0x14BC JUMP JUMPDEST PUSH1 0x20 SWAP1 DUP2 MUL SWAP2 SWAP1 SWAP2 ADD ADD MSTORE DUP1 PUSH2 0xF89 DUP2 PUSH2 0x155B JUMP JUMPDEST SWAP2 POP POP PUSH2 0xF39 JUMP JUMPDEST POP POP PUSH2 0x102C JUMP JUMPDEST PUSH1 0x0 JUMPDEST PUSH32 0x0 DUP2 LT ISZERO PUSH2 0x102A JUMPI DUP3 PUSH8 0xDE0B6B3A7640000 DUP4 DUP4 DUP2 MLOAD DUP2 LT PUSH2 0xFDF JUMPI PUSH2 0xFDF PUSH2 0x14BC JUMP JUMPDEST PUSH1 0x20 MUL PUSH1 0x20 ADD ADD MLOAD PUSH2 0xFF1 SWAP2 SWAP1 PUSH2 0x14E8 JUMP JUMPDEST PUSH2 0xFFB SWAP2 SWAP1 PUSH2 0x1515 JUMP JUMPDEST DUP7 DUP3 DUP2 MLOAD DUP2 LT PUSH2 0x100D JUMPI PUSH2 0x100D PUSH2 0x14BC JUMP JUMPDEST PUSH1 0x20 SWAP1 DUP2 MUL SWAP2 SWAP1 SWAP2 ADD ADD MSTORE DUP1 PUSH2 0x1022 DUP2 PUSH2 0x155B JUMP JUMPDEST SWAP2 POP POP PUSH2 0xF9B JUMP JUMPDEST POP JUMPDEST POP SWAP3 SWAP6 SWAP5 POP POP POP POP POP JUMP JUMPDEST PUSH1 0x0 DUP1 PUSH2 0x1042 PUSH2 0x4F7 JUMP JUMPDEST SWAP1 POP PUSH1 0x0 DUP4 PUSH1 0x0 DUP2 MLOAD DUP2 LT PUSH2 0x1059 JUMPI PUSH2 0x1059 PUSH2 0x14BC JUMP JUMPDEST PUSH1 0x20 MUL PUSH1 0x20 ADD ADD MLOAD SWAP1 POP PUSH1 0x0 PUSH1 0x1 SWAP1 POP JUMPDEST PUSH32 0x0 DUP2 LT ISZERO PUSH2 0x10E2 JUMPI DUP2 DUP6 DUP3 DUP2 MLOAD DUP2 LT PUSH2 0x10A5 JUMPI PUSH2 0x10A5 PUSH2 0x14BC JUMP JUMPDEST PUSH1 0x20 MUL PUSH1 0x20 ADD ADD MLOAD GT ISZERO PUSH2 0x10D0 JUMPI DUP5 DUP2 DUP2 MLOAD DUP2 LT PUSH2 0x10C5 JUMPI PUSH2 0x10C5 PUSH2 0x14BC JUMP JUMPDEST PUSH1 0x20 MUL PUSH1 0x20 ADD ADD MLOAD SWAP2 POP JUMPDEST DUP1 PUSH2 0x10DA DUP2 PUSH2 0x155B JUMP JUMPDEST SWAP2 POP POP PUSH2 0x106A JUMP JUMPDEST POP PUSH1 0x0 DUP1 JUMPDEST PUSH32 0x0 DUP2 LT ISZERO PUSH2 0x11F7 JUMPI PUSH1 0x0 DUP7 DUP3 DUP2 MLOAD DUP2 LT PUSH2 0x1123 JUMPI PUSH2 0x1123 PUSH2 0x14BC JUMP JUMPDEST PUSH1 0x20 MUL PUSH1 0x20 ADD ADD MLOAD DUP5 GT PUSH2 0x1138 JUMPI PUSH1 0x0 PUSH2 0x115D JUMP JUMPDEST DUP7 DUP3 DUP2 MLOAD DUP2 LT PUSH2 0x114A JUMPI PUSH2 0x114A PUSH2 0x14BC JUMP JUMPDEST PUSH1 0x20 MUL PUSH1 0x20 ADD ADD MLOAD DUP5 PUSH2 0x115D SWAP2 SWAP1 PUSH2 0x1587 JUMP JUMPDEST SWAP1 POP PUSH1 0x0 DUP6 PUSH2 0x1174 PUSH8 0xDE0B6B3A7640000 DUP5 PUSH2 0x14E8 JUMP JUMPDEST PUSH2 0x117E SWAP2 SWAP1 PUSH2 0x1515 JUMP JUMPDEST SWAP1 POP PUSH1 0x0 DUP2 PUSH1 0x0 SUB PUSH2 0x1199 JUMPI POP PUSH8 0xDE0B6B3A7640000 PUSH2 0x11D5 JUMP JUMPDEST PUSH1 0x0 PUSH2 0x11A4 DUP4 PUSH2 0xA33 JUMP JUMPDEST SWAP1 POP DUP1 ISZERO PUSH2 0x11CE JUMPI DUP1 PUSH2 0x11BF PUSH8 0xDE0B6B3A7640000 DUP1 PUSH2 0x14E8 JUMP JUMPDEST PUSH2 0x11C9 SWAP2 SWAP1 PUSH2 0x1515 JUMP JUMPDEST PUSH2 0x11D1 JUMP JUMPDEST PUSH1 0x0 JUMPDEST SWAP2 POP POP JUMPDEST PUSH2 0x11DF DUP2 DUP7 PUSH2 0x1574 JUMP JUMPDEST SWAP5 POP POP POP POP DUP1 DUP1 PUSH2 0x11EF SWAP1 PUSH2 0x155B JUMP JUMPDEST SWAP2 POP POP PUSH2 0x10E7 JUMP JUMPDEST POP PUSH1 0x0 PUSH2 0x1203 DUP3 PUSH2 0x123B JUMP JUMPDEST SWAP1 POP PUSH1 0x0 PUSH8 0xDE0B6B3A7640000 PUSH2 0x121A DUP4 DUP8 PUSH2 0x14E8 JUMP JUMPDEST PUSH2 0x1224 SWAP2 SWAP1 PUSH2 0x1515 JUMP JUMPDEST SWAP1 POP PUSH2 0x1230 DUP2 DUP6 PUSH2 0x1574 JUMP JUMPDEST SWAP8 SWAP7 POP POP POP POP POP POP POP JUMP JUMPDEST PUSH1 0x0 DUP1 DUP3 GT PUSH2 0x1289 JUMPI PUSH1 0x40 MLOAD PUSH3 0x461BCD PUSH1 0xE5 SHL DUP2 MSTORE PUSH1 0x20 PUSH1 0x4 DUP3 ADD MSTORE PUSH1 0x16 PUSH1 0x24 DUP3 ADD MSTORE PUSH22 0x6C6E3A2078206D75737420626520706F736974697665 PUSH1 0x50 SHL PUSH1 0x44 DUP3 ADD MSTORE PUSH1 0x64 ADD PUSH1 0x40 MLOAD DUP1 SWAP2 SUB SWAP1 REVERT JUMPDEST PUSH1 0x0 DUP3 DUP2 JUMPDEST PUSH2 0x12A1 PUSH8 0xDE0B6B3A7640000 PUSH1 0x2 PUSH2 0x14E8 JUMP JUMPDEST DUP3 LT PUSH2 0x12C6 JUMPI PUSH2 0x12B2 PUSH1 0x2 DUP4 PUSH2 0x1515 JUMP JUMPDEST SWAP2 POP DUP1 PUSH2 0x12BE DUP2 PUSH2 0x155B JUMP JUMPDEST SWAP2 POP POP PUSH2 0x128E JUMP JUMPDEST PUSH8 0xDE0B6B3A7640000 DUP3 LT ISZERO PUSH2 0x12F5 JUMPI PUSH2 0x12E1 DUP3 PUSH1 0x2 PUSH2 0x14E8 JUMP JUMPDEST SWAP2 POP DUP1 PUSH2 0x12ED DUP2 PUSH2 0x15CE JUMP JUMPDEST SWAP2 POP POP PUSH2 0x12C6 JUMP JUMPDEST PUSH1 0x0 PUSH2 0x1309 PUSH8 0xDE0B6B3A7640000 DUP5 PUSH2 0x1587 JUMP JUMPDEST SWAP1 POP DUP1 PUSH1 0x1 JUMPDEST PUSH1 0xA DUP2 GT PUSH2 0x138C JUMPI PUSH2 0x1322 PUSH1 0x2 DUP3 PUSH2 0x15BA JUMP JUMPDEST PUSH1 0x1 SUB PUSH2 0x1344 JUMPI PUSH2 0x1333 DUP2 DUP4 PUSH2 0x1515 JUMP JUMPDEST PUSH2 0x133D SWAP1 DUP8 PUSH2 0x1574 JUMP JUMPDEST SWAP6 POP PUSH2 0x135B JUMP JUMPDEST PUSH2 0x134E DUP2 DUP4 PUSH2 0x1515 JUMP JUMPDEST PUSH2 0x1358 SWAP1 DUP8 PUSH2 0x1587 JUMP JUMPDEST SWAP6 POP JUMPDEST PUSH8 0xDE0B6B3A7640000 PUSH2 0x136E DUP5 DUP5 PUSH2 0x14E8 JUMP JUMPDEST PUSH2 0x1378 SWAP2 SWAP1 PUSH2 0x1515 JUMP JUMPDEST SWAP2 POP DUP1 PUSH2 0x1384 DUP2 PUSH2 0x155B JUMP JUMPDEST SWAP2 POP POP PUSH2 0x130F JUMP JUMPDEST POP PUSH8 0x99E8DB03256CE5D PUSH2 0x13A0 DUP2 DUP6 PUSH2 0x14E8 JUMP JUMPDEST PUSH2 0xB73 SWAP1 DUP8 PUSH2 0x1574 JUMP JUMPDEST DUP1 CALLDATALOAD PUSH1 0x1 PUSH1 0x1 PUSH1 0xA0 SHL SUB DUP2 AND DUP2 EQ PUSH2 0x13C1 JUMPI PUSH1 0x0 DUP1 REVERT JUMPDEST SWAP2 SWAP1 POP JUMP JUMPDEST PUSH1 0x0 DUP1 PUSH1 0x40 DUP4 DUP6 SUB SLT ISZERO PUSH2 0x13D9 JUMPI PUSH1 0x0 DUP1 REVERT JUMPDEST PUSH2 0x13E2 DUP4 PUSH2 0x13AA JUMP JUMPDEST SWAP5 PUSH1 0x20 SWAP4 SWAP1 SWAP4 ADD CALLDATALOAD SWAP4 POP POP POP JUMP JUMPDEST PUSH1 0x0 PUSH1 0x20 DUP3 DUP5 SUB SLT ISZERO PUSH2 0x1402 JUMPI PUSH1 0x0 DUP1 REVERT JUMPDEST POP CALLDATALOAD SWAP2 SWAP1 POP JUMP JUMPDEST PUSH1 0x0 PUSH1 0x20 DUP3 DUP5 SUB SLT ISZERO PUSH2 0x141B JUMPI PUSH1 0x0 DUP1 REVERT JUMPDEST PUSH2 0x1424 DUP3 PUSH2 0x13AA JUMP JUMPDEST SWAP4 SWAP3 POP POP POP JUMP JUMPDEST PUSH1 0x0 DUP2 MLOAD DUP1 DUP5 MSTORE PUSH1 0x20 DUP1 DUP6 ADD SWAP5 POP DUP1 DUP5 ADD PUSH1 0x0 JUMPDEST DUP4 DUP2 LT ISZERO PUSH2 0x145B JUMPI DUP2 MLOAD DUP8 MSTORE SWAP6 DUP3 ADD SWAP6 SWAP1 DUP3 ADD SWAP1 PUSH1 0x1 ADD PUSH2 0x143F JUMP JUMPDEST POP SWAP5 SWAP6 SWAP5 POP POP POP POP POP JUMP JUMPDEST PUSH1 0x20 DUP2 MSTORE PUSH1 0x0 PUSH2 0x1424 PUSH1 0x20 DUP4 ADD DUP5 PUSH2 0x142B JUMP JUMPDEST PUSH1 0x0 DUP1 PUSH1 0x40 DUP4 DUP6 SUB SLT ISZERO PUSH2 0x148C JUMPI PUSH1 0x0 DUP1 REVERT JUMPDEST POP POP DUP1 CALLDATALOAD SWAP3 PUSH1 0x20 SWAP1 SWAP2 ADD CALLDATALOAD SWAP2 POP JUMP JUMPDEST DUP3 DUP2 MSTORE PUSH1 0x40 PUSH1 0x20 DUP3 ADD MSTORE PUSH1 0x0 PUSH2 0x14B4 PUSH1 0x40 DUP4 ADD DUP5 PUSH2 0x142B JUMP JUMPDEST SWAP5 SWAP4 POP POP POP POP JUMP JUMPDEST PUSH4 0x4E487B71 PUSH1 0xE0 SHL PUSH1 0x0 MSTORE PUSH1 0x32 PUSH1 0x4 MSTORE PUSH1 0x24 PUSH1 0x0 REVERT JUMPDEST PUSH4 0x4E487B71 PUSH1 0xE0 SHL PUSH1 0x0 MSTORE PUSH1 0x11 PUSH1 0x4 MSTORE PUSH1 0x24 PUSH1 0x0 REVERT JUMPDEST DUP1 DUP3 MUL DUP2 ISZERO DUP3 DUP3 DIV DUP5 EQ OR PUSH2 0x4F1 JUMPI PUSH2 0x4F1 PUSH2 0x14D2 JUMP JUMPDEST PUSH4 0x4E487B71 PUSH1 0xE0 SHL PUSH1 0x0 MSTORE PUSH1 0x12 PUSH1 0x4 MSTORE PUSH1 0x24 PUSH1 0x0 REVERT JUMPDEST PUSH1 0x0 DUP3 PUSH2 0x1524 JUMPI PUSH2 0x1524 PUSH2 0x14FF JUMP JUMPDEST POP DIV SWAP1 JUMP JUMPDEST PUSH4 0x4E487B71 PUSH1 0xE0 SHL PUSH1 0x0 MSTORE PUSH1 0x41 PUSH1 0x4 MSTORE PUSH1 0x24 PUSH1 0x0 REVERT JUMPDEST PUSH1 0x0 PUSH1 0x1 PUSH1 0xFF SHL DUP3 ADD PUSH2 0x1554 JUMPI PUSH2 0x1554 PUSH2 0x14D2 JUMP JUMPDEST POP PUSH1 0x0 SUB SWAP1 JUMP JUMPDEST PUSH1 0x0 PUSH1 0x1 DUP3 ADD PUSH2 0x156D JUMPI PUSH2 0x156D PUSH2 0x14D2 JUMP JUMPDEST POP PUSH1 0x1 ADD SWAP1 JUMP JUMPDEST DUP1 DUP3 ADD DUP1 DUP3 GT ISZERO PUSH2 0x4F1 JUMPI PUSH2 0x4F1 PUSH2 0x14D2 JUMP JUMPDEST DUP2 DUP2 SUB DUP2 DUP2 GT ISZERO PUSH2 0x4F1 JUMPI PUSH2 0x4F1 PUSH2 0x14D2 JUMP JUMPDEST DUP2 DUP2 SUB PUSH1 0x0 DUP4 SLT DUP1 ISZERO DUP4 DUP4 SGT AND DUP4 DUP4 SLT DUP3 AND OR ISZERO PUSH2 0x632 JUMPI PUSH2 0x632 PUSH2 0x14D2 JUMP JUMPDEST PUSH1 0x0 DUP3 PUSH2 0x15C9 JUMPI PUSH2 0x15C9 PUSH2 0x14FF JUMP JUMPDEST POP MOD SWAP1 JUMP JUMPDEST PUSH1 0x0 DUP2 PUSH2 0x15DD JUMPI PUSH2 0x15DD PUSH2 0x14D2 JUMP JUMPDEST POP PUSH1 0x0 NOT ADD SWAP1 JUMP INVALID LOG2 PUSH5 0x6970667358 0x22 SLT KECCAK256 0xE8 CODESIZE PUSH29 0xC9947358A71FDBBB348D98637E9E538608118F86B9E51A60DBDFF6CEE4 PUSH5 0x736F6C6343 STOP ADDMOD EQ STOP CALLER "},"methodIdentifiers":{"DECIMALS()":"2e0f2625","alpha()":"db1d0fd5","b0()":"3602175c","claimWinnings()":"b401faf1","collateral()":"d8dfeb45","getAllUserBalances(address)":"afd82fba","getB()":"a1c51915","getMarketInfo()":"23341a05","getPrices()":"bd9a548b","getTradeCost(uint256,int256)":"f46aa875","getUserBalance(address,uint256)":"91a9648a","numOutcomes()":"8767d64e","owner()":"8da5cb5b","quantities(uint256)":"a4125403","resolveMarket(uint256)":"6399d03d","resolved()":"3f6fa655","shareBalances(address,uint256)":"63938202","totalVolume()":"5f81a57c","winningOutcome()":"9b34ae03"}}}}}