{
  "_format": "hh-sol-artifact-1",
  "contractName": "LSLMSRMarket",
  "sourceName": "contracts/LMSR.sol",
  "abi": [
    {
      "inputs": [
        {
          "internalType": "uint256",
          "name": "_numOutcomes",
          "type": "uint256"
        },
        {
          "internalType": "uint256",
          "name": "_b0",
          "type": "uint256"
        },
        {
          "internalType": "uint256",
          "name": "_alpha",
          "type": "uint256"
        }
      ],
      "stateMutability": "payable",
      "type": "constructor"
    },
    {
      "inputs": [],
      "name": "InsufficientPayment",
      "type": "error"
    },
    {
      "inputs": [],
      "name": "InsufficientShares",
      "type": "error"
    },
    {
      "inputs": [],
      "name": "InvalidDelta",
      "type": "error"
    },
    {
      "inputs": [],
      "name": "InvalidInitialFunding",
      "type": "error"
    },
    {
      "inputs": [],
      "name": "InvalidNumOutcomes",
      "type": "error"
    },
    {
      "inputs": [],
      "name": "InvalidOutcome",
      "type": "error"
    },
    {
      "inputs": [],
      "name": "MarketAlreadyResolved",
      "type": "error"
    },
    {
      "inputs": [],
      "name": "NotResolved",
      "type": "error"
    },
    {
      "inputs": [],
      "name": "OnlyOwner",
      "type": "error"
    },
    {
      "anonymous": false,
      "inputs": [
        {
          "indexed": false,
          "internalType": "uint256",
          "name": "initialCollateral",
          "type": "uint256"
        }
      ],
      "name": "MarketFunded",
      "type": "event"
    },
    {
      "anonymous": false,
      "inputs": [
        {
          "indexed": true,
          "internalType": "uint256",
          "name": "winningOutcome",
          "type": "uint256"
        }
      ],
      "name": "MarketResolved",
      "type": "event"
    },
    {
      "anonymous": false,
      "inputs": [
        {
          "indexed": true,
          "internalType": "address",
          "name": "user",
          "type": "address"
        },
        {
          "indexed": true,
          "internalType": "uint256",
          "name": "outcome",
          "type": "uint256"
        },
        {
          "indexed": false,
          "internalType": "int256",
          "name": "amount",
          "type": "int256"
        }
      ],
      "name": "SharesTransferred",
      "type": "event"
    },
    {
      "inputs": [],
      "name": "DECIMALS",
      "outputs": [
        {
          "internalType": "uint256",
          "name": "",
          "type": "uint256"
        }
      ],
      "stateMutability": "view",
      "type": "function"
    },
    {
      "inputs": [],
      "name": "alpha",
      "outputs": [
        {
          "internalType": "uint256",
          "name": "",
          "type": "uint256"
        }
      ],
      "stateMutability": "view",
      "type": "function"
    },
    {
      "inputs": [],
      "name": "b0",
      "outputs": [
        {
          "internalType": "uint256",
          "name": "",
          "type": "uint256"
        }
      ],
      "stateMutability": "view",
      "type": "function"
    },
    {
      "inputs": [],
      "name": "claimWinnings",
      "outputs": [],
      "stateMutability": "nonpayable",
      "type": "function"
    },
    {
      "inputs": [],
      "name": "collateral",
      "outputs": [
        {
          "internalType": "uint256",
          "name": "",
          "type": "uint256"
        }
      ],
      "stateMutability": "view",
      "type": "function"
    },
    {
      "inputs": [
        {
          "internalType": "address",
          "name": "user",
          "type": "address"
        }
      ],
      "name": "getAllUserBalances",
      "outputs": [
        {
          "internalType": "uint256[]",
          "name": "",
          "type": "uint256[]"
        }
      ],
      "stateMutability": "view",
      "type": "function"
    },
    {
      "inputs": [],
      "name": "getB",
      "outputs": [
        {
          "internalType": "uint256",
          "name": "",
          "type": "uint256"
        }
      ],
      "stateMutability": "view",
      "type": "function"
    },
    {
      "inputs": [],
      "name": "getMarketInfo",
      "outputs": [
        {
          "internalType": "uint256",
          "name": "_numOutcomes",
          "type": "uint256"
        },
        {
          "internalType": "uint256",
          "name": "_b0",
          "type": "uint256"
        },
        {
          "internalType": "uint256",
          "name": "_alpha",
          "type": "uint256"
        },
        {
          "internalType": "uint256",
          "name": "_currentB",
          "type": "uint256"
        },
        {
          "internalType": "uint256",
          "name": "_totalVolume",
          "type": "uint256"
        },
        {
          "internalType": "uint256",
          "name": "_collateral",
          "type": "uint256"
        },
        {
          "internalType": "bool",
          "name": "_resolved",
          "type": "bool"
        },
        {
          "internalType": "uint256",
          "name": "_winningOutcome",
          "type": "uint256"
        }
      ],
      "stateMutability": "view",
      "type": "function"
    },
    {
      "inputs": [],
      "name": "getPrices",
      "outputs": [
        {
          "internalType": "uint256[]",
          "name": "",
          "type": "uint256[]"
        }
      ],
      "stateMutability": "view",
      "type": "function"
    },
    {
      "inputs": [
        {
          "internalType": "uint256",
          "name": "outcome",
          "type": "uint256"
        },
        {
          "internalType": "int256",
          "name": "delta",
          "type": "int256"
        }
      ],
      "name": "getTradeCost",
      "outputs": [
        {
          "internalType": "int256",
          "name": "cost",
          "type": "int256"
        },
        {
          "internalType": "uint256[]",
          "name": "newPrices",
          "type": "uint256[]"
        }
      ],
      "stateMutability": "view",
      "type": "function"
    },
    {
      "inputs": [
        {
          "internalType": "address",
          "name": "user",
          "type": "address"
        },
        {
          "internalType": "uint256",
          "name": "outcome",
          "type": "uint256"
        }
      ],
      "name": "getUserBalance",
      "outputs": [
        {
          "internalType": "uint256",
          "name": "",
          "type": "uint256"
        }
      ],
      "stateMutability": "view",
      "type": "function"
    },
    {
      "inputs": [],
      "name": "numOutcomes",
      "outputs": [
        {
          "internalType": "uint256",
          "name": "",
          "type": "uint256"
        }
      ],
      "stateMutability": "view",
      "type": "function"
    },
    {
      "inputs": [],
      "name": "owner",
      "outputs": [
        {
          "internalType": "address",
          "name": "",
          "type": "address"
        }
      ],
      "stateMutability": "view",
      "type": "function"
    },
    {
      "inputs": [
        {
          "internalType": "uint256",
          "name": "",
          "type": "uint256"
        }
      ],
      "name": "quantities",
      "outputs": [
        {
          "internalType": "uint256",
          "name": "",
          "type": "uint256"
        }
      ],
      "stateMutability": "view",
      "type": "function"
    },
    {
      "inputs": [
        {
          "internalType": "uint256",
          "name": "_winningOutcome",
          "type": "uint256"
        }
      ],
      "name": "resolveMarket",
      "outputs": [],
      "stateMutability": "nonpayable",
      "type": "function"
    },
    {
      "inputs": [],
      "name": "resolved",
      "outputs": [
        {
          "internalType": "bool",
          "name": "",
          "type": "bool"
        }
      ],
      "stateMutability": "view",
      "type": "function"
    },
    {
      "inputs": [
        {
          "internalType": "address",
          "name": "",
          "type": "address"
        },
        {
          "internalType": "uint256",
          "name": "",
          "type": "uint256"
        }
      ],
      "name": "shareBalances",
      "outputs": [
        {
          "internalType": "uint256",
          "name": "",
          "type": "uint256"
        }
      ],
      "stateMutability": "view",
      "type": "function"
    },
    {
      "inputs": [],
      "name": "totalVolume",
      "outputs": [
        {
          "internalType": "uint256",
          "name": "",
          "type": "uint256"
        }
      ],
      "stateMutability": "view",
      "type": "function"
    },
    {
      "inputs": [],
      "name": "winningOutcome",
      "outputs": [
        {
          "internalType": "uint256",
          "name": "",
          "type": "uint256"
        }
      ],
      "stateMutability": "view",
      "type": "function"
    }
  ],
  "bytecode": "0x60e060405260405162001ddc38038062001ddc8339810160408190526200002691620005d6565b6002831080620000365750600583115b15620000555760405163566f431760e11b815260040160405180910390fd5b608083905260a082905260c0819052600680546001600160a01b03191633179055826001600160401b0381111562000091576200009162000605565b604051908082528060200260200182016040528015620000bb578160200160208202803683370190505b508051620000d2916000916020909101906200056f565b50826001600160401b03811115620000ee57620000ee62000605565b60405190808252806020026020018201604052801562000118578160200160208202803683370190505b5033600090815260036020908152604090912082516200013f93919291909101906200056f565b5060006200014c620001fa565b905060006200016e62000168670de0b6b3a76400008762000631565b62000261565b90506000670de0b6b3a764000062000187838562000631565b62000193919062000667565b9050803414620001b65760405163688013f160e11b815260040160405180910390fd5b60028190556040518181527fe15e5eabdc7a1a04b0dc94a2dad6a7696e8f53c0d3f5b23b9280aa2cbd3f12db9060200160405180910390a1505050505050620006f7565b600080670de0b6b3a764000060015460c05162000218919062000631565b62000224919062000667565b9050600062000233826200040c565b9050670de0b6b3a76400008160a0516200024e919062000631565b6200025a919062000667565b9250505090565b6000808211620002b75760405162461bcd60e51b815260206004820152601660248201527f6c6e3a2078206d75737420626520706f73697469766500000000000000000000604482015260640160405180910390fd5b600082815b620002d1670de0b6b3a7640000600262000631565b8210620002fc57620002e560028362000667565b915080620002f3816200067e565b915050620002bc565b670de0b6b3a764000082101562000331576200031a82600262000631565b91508062000328816200069a565b915050620002fc565b600062000347670de0b6b3a764000084620006b4565b90508060015b600a8111620003de5762000363600282620006ca565b6001036200038b5762000377818362000667565b620003839087620006e1565b9550620003a6565b62000397818362000667565b620003a39087620006b4565b95505b670de0b6b3a7640000620003bb848462000631565b620003c7919062000667565b915080620003d5816200067e565b9150506200034d565b5067099e8db03256ce5d620003f4818562000631565b620004009087620006e1565b98975050505050505050565b600081600003620004265750670de0b6b3a7640000919050565b6200043b670de0b6b3a7640000603262000631565b82106200044b5750600019919050565b600062000461670de0b6b3a76400008462000667565b9050600062000479670de0b6b3a764000085620006ca565b90506725b946ebc0b36173670de0b6b3a764000060005b84811015620004d157670de0b6b3a7640000620004ae848462000631565b620004ba919062000667565b915080620004c8816200067e565b91505062000490565b50670de0b6b3a76400008360015b601481116200054d57620004f48284620006e1565b925062000503816001620006e1565b6200051790670de0b6b3a764000062000631565b62000523878462000631565b6200052f919062000667565b915081156200054d578062000544816200067e565b915050620004df565b50670de0b6b3a764000062000563838562000631565b62000400919062000667565b828054828255906000526020600020908101928215620005ad579160200282015b82811115620005ad57825182559160200191906001019062000590565b50620005bb929150620005bf565b5090565b5b80821115620005bb5760008155600101620005c0565b600080600060608486031215620005ec57600080fd5b8351925060208401519150604084015190509250925092565b634e487b7160e01b600052604160045260246000fd5b634e487b7160e01b600052601160045260246000fd5b80820281158282048414176200064b576200064b6200061b565b92915050565b634e487b7160e01b600052601260045260246000fd5b60008262000679576200067962000651565b500490565b6000600182016200069357620006936200061b565b5060010190565b600081620006ac57620006ac6200061b565b506000190190565b818103818111156200064b576200064b6200061b565b600082620006dc57620006dc62000651565b500690565b808201808211156200064b576200064b6200061b565b60805160a05160c05161161b620007c1600039600081816102c90152818161035c01526105080152600081816101920152818161033b01526105590152600081816102070152818161031a0152818161042c015281816105d20152818161080a01528181610888015281816108f001528181610b8501528181610bf601528181610c2b01528181610c5f01528181610ce701528181610d6301528181610dcb01528181610f0701528181610f3b01528181610f9d0152818161106c01526110e9015261161b6000f3fe608060405234801561001057600080fd5b50600436106101215760003560e01c806391a9648a116100ad578063b401faf111610071578063b401faf1146102ab578063bd9a548b146102b3578063d8dfeb45146102bb578063db1d0fd5146102c4578063f46aa875146102eb57600080fd5b806391a9648a146102545780639b34ae0314610267578063a1c5191514610270578063a412540314610278578063afd82fba1461028b57600080fd5b80635f81a57c116100f45780635f81a57c146101d157806363938202146101da5780636399d03d146101ed5780638767d64e146102025780638da5cb5b1461022957600080fd5b806323341a05146101265780632e0f2625146101705780633602175c1461018d5780633f6fa655146101b4575b600080fd5b61012e61030c565b604080519889526020890197909752958701949094526060860192909252608085015260a0840152151560c083015260e0820152610100015b60405180910390f35b61017f670de0b6b3a764000081565b604051908152602001610167565b61017f7f000000000000000000000000000000000000000000000000000000000000000081565b6004546101c19060ff1681565b6040519015158152602001610167565b61017f60015481565b61017f6101e83660046113c6565b6103aa565b6102006101fb3660046113f0565b6103db565b005b61017f7f000000000000000000000000000000000000000000000000000000000000000081565b60065461023c906001600160a01b031681565b6040516001600160a01b039091168152602001610167565b61017f6102623660046113c6565b6104aa565b61017f60055481565b61017f6104f7565b61017f6102863660046113f0565b61058e565b61029e610299366004611409565b6105af565b6040516101679190611466565b6102006106a3565b61029e6107a4565b61017f60025481565b61017f7f000000000000000000000000000000000000000000000000000000000000000081565b6102fe6102f9366004611479565b610804565b60405161016792919061149b565b6000806000806000806000807f00000000000000000000000000000000000000000000000000000000000000007f00000000000000000000000000000000000000000000000000000000000000007f00000000000000000000000000000000000000000000000000000000000000006103836104f7565b600154600254600454600554969f959e50939c50919a509850965060ff1694509092509050565b600360205281600052604060002081815481106103c657600080fd5b90600052602060002001600091509150505481565b6006546001600160a01b0316331461040657604051635fc483c560e01b815260040160405180910390fd5b60045460ff161561042a5760405163aa43cb2d60e01b815260040160405180910390fd5b7f0000000000000000000000000000000000000000000000000000000000000000811061046a5760405163c74a206d60e01b815260040160405180910390fd5b6004805460ff19166001179055600581905560405181907f93608ecbcf057462da63f5aef413ce7f78c5e1b3bb51859d77a40845ece2bfc390600090a250565b6001600160a01b038216600090815260036020526040812080546104cf5760006104ed565b8083815481106104e1576104e16114bc565b90600052602060002001545b9150505b92915050565b600080670de0b6b3a76400006001547f000000000000000000000000000000000000000000000000000000000000000061053191906114e8565b61053b9190611515565b9050600061054882610a33565b9050670de0b6b3a764000061057d827f00000000000000000000000000000000000000000000000000000000000000006114e8565b6105879190611515565b9250505090565b6000818154811061059e57600080fd5b600091825260209091200154905081565b6001600160a01b03811660009081526003602052604081205460609103610639577f000000000000000000000000000000000000000000000000000000000000000067ffffffffffffffff81111561060957610609611529565b604051908082528060200260200182016040528015610632578160200160208202803683370190505b5092915050565b6001600160a01b0382166000908152600360209081526040918290208054835181840281018401909452808452909183018282801561069757602002820191906000526020600020905b815481526020019060010190808311610683575b50505050509050919050565b60045460ff166106c657604051639f4a648960e01b815260040160405180910390fd5b3360009081526003602052604081205490036106f557604051633999656760e01b815260040160405180910390fd5b33600090815260036020526040812060055481548110610717576107176114bc565b906000526020600020015490508060000361074557604051633999656760e01b815260040160405180910390fd5b33600090815260036020526040812060055481548110610767576107676114bc565b6000918252602082200191909155604051339183156108fc02918491818181858888f193505050501580156107a0573d6000803e3d6000fd5b5050565b60606107ff60008054806020026020016040519081016040528092919081815260200182805480156107f557602002820191906000526020600020905b8154815260200190600101908083116107e1575b5050505050610b7f565b905090565b600060607f000000000000000000000000000000000000000000000000000000000000000084106108485760405163c74a206d60e01b815260040160405180910390fd5b82600003610869576040516305aa561360e11b815260040160405180910390fd5b60008084136108805761087b8461153f565b610882565b835b905060007f000000000000000000000000000000000000000000000000000000000000000067ffffffffffffffff8111156108bf576108bf611529565b6040519080825280602002602001820160405280156108e8578160200160208202803683370190505b50905060005b7f00000000000000000000000000000000000000000000000000000000000000008110156109635760008181548110610929576109296114bc565b9060005260206000200154828281518110610946576109466114bc565b60209081029190910101528061095b8161155b565b9150506108ee565b50600085131561099c5781818781518110610980576109806114bc565b602002602001018181516109949190611574565b905250610a01565b818187815181106109af576109af6114bc565b602002602001015110156109d657604051633999656760e01b815260040160405180910390fd5b818187815181106109e9576109e96114bc565b602002602001018181516109fd9190611587565b9052505b6000610a0c82611037565b905060025481610a1c919061159a565b9450610a2782610b7f565b93505050509250929050565b600081600003610a4c5750670de0b6b3a7640000919050565b610a5f670de0b6b3a764000060326114e8565b8210610a6e5750600019919050565b6000610a82670de0b6b3a764000084611515565b90506000610a98670de0b6b3a7640000856115ba565b90506725b946ebc0b36173670de0b6b3a764000060005b84811015610ae857670de0b6b3a7640000610aca84846114e8565b610ad49190611515565b915080610ae08161155b565b915050610aaf565b50670de0b6b3a76400008360015b60148111610b5557610b088284611574565b9250610b15816001611574565b610b2790670de0b6b3a76400006114e8565b610b3187846114e8565b610b3b9190611515565b91508115610b555780610b4d8161155b565b915050610af6565b50670de0b6b3a7640000610b6983856114e8565b610b739190611515565b98975050505050505050565b606060007f000000000000000000000000000000000000000000000000000000000000000067ffffffffffffffff811115610bbc57610bbc611529565b604051908082528060200260200182016040528015610be5578160200160208202803683370190505b5090506000610bf26104f7565b90507f00000000000000000000000000000000000000000000000000000000000000001580610c1f575080155b15610cbf576000610c587f0000000000000000000000000000000000000000000000000000000000000000670de0b6b3a7640000611515565b905060005b7f0000000000000000000000000000000000000000000000000000000000000000811015610cb55781848281518110610c9857610c986114bc565b602090810291909101015280610cad8161155b565b915050610c5d565b5091949350505050565b600084600081518110610cd457610cd46114bc565b602002602001015190506000600190505b7f0000000000000000000000000000000000000000000000000000000000000000811015610d5d5781868281518110610d2057610d206114bc565b60200260200101511115610d4b57858181518110610d4057610d406114bc565b602002602001015191505b80610d558161155b565b915050610ce5565b506000807f000000000000000000000000000000000000000000000000000000000000000067ffffffffffffffff811115610d9a57610d9a611529565b604051908082528060200260200182016040528015610dc3578160200160208202803683370190505b50905060005b7f0000000000000000000000000000000000000000000000000000000000000000811015610ef7576000888281518110610e0557610e056114bc565b60200260200101518511610e1a576000610e3f565b888281518110610e2c57610e2c6114bc565b602002602001015185610e3f9190611587565b9050600086610e56670de0b6b3a7640000846114e8565b610e609190611515565b9050600081600003610e7b5750670de0b6b3a7640000610eb7565b6000610e8683610a33565b90508015610eb05780610ea1670de0b6b3a7640000806114e8565b610eab9190611515565b610eb3565b60005b9150505b80858581518110610eca57610eca6114bc565b6020908102919091010152610edf8187611574565b95505050508080610eef9061155b565b915050610dc9565b5081600003610f98576000610f347f0000000000000000000000000000000000000000000000000000000000000000670de0b6b3a7640000611515565b905060005b7f0000000000000000000000000000000000000000000000000000000000000000811015610f915781878281518110610f7457610f746114bc565b602090810291909101015280610f898161155b565b915050610f39565b505061102c565b60005b7f000000000000000000000000000000000000000000000000000000000000000081101561102a5782670de0b6b3a7640000838381518110610fdf57610fdf6114bc565b6020026020010151610ff191906114e8565b610ffb9190611515565b86828151811061100d5761100d6114bc565b6020908102919091010152806110228161155b565b915050610f9b565b505b509295945050505050565b6000806110426104f7565b9050600083600081518110611059576110596114bc565b602002602001015190506000600190505b7f00000000000000000000000000000000000000000000000000000000000000008110156110e257818582815181106110a5576110a56114bc565b602002602001015111156110d0578481815181106110c5576110c56114bc565b602002602001015191505b806110da8161155b565b91505061106a565b506000805b7f00000000000000000000000000000000000000000000000000000000000000008110156111f7576000868281518110611123576111236114bc565b6020026020010151841161113857600061115d565b86828151811061114a5761114a6114bc565b60200260200101518461115d9190611587565b9050600085611174670de0b6b3a7640000846114e8565b61117e9190611515565b90506000816000036111995750670de0b6b3a76400006111d5565b60006111a483610a33565b905080156111ce57806111bf670de0b6b3a7640000806114e8565b6111c99190611515565b6111d1565b60005b9150505b6111df8186611574565b945050505080806111ef9061155b565b9150506110e7565b5060006112038261123b565b90506000670de0b6b3a764000061121a83876114e8565b6112249190611515565b90506112308185611574565b979650505050505050565b60008082116112895760405162461bcd60e51b81526020600482015260166024820152756c6e3a2078206d75737420626520706f73697469766560501b604482015260640160405180910390fd5b600082815b6112a1670de0b6b3a764000060026114e8565b82106112c6576112b2600283611515565b9150806112be8161155b565b91505061128e565b670de0b6b3a76400008210156112f5576112e18260026114e8565b9150806112ed816115ce565b9150506112c6565b6000611309670de0b6b3a764000084611587565b90508060015b600a811161138c576113226002826115ba565b600103611344576113338183611515565b61133d9087611574565b955061135b565b61134e8183611515565b6113589087611587565b95505b670de0b6b3a764000061136e84846114e8565b6113789190611515565b9150806113848161155b565b91505061130f565b5067099e8db03256ce5d6113a081856114e8565b610b739087611574565b80356001600160a01b03811681146113c157600080fd5b919050565b600080604083850312156113d957600080fd5b6113e2836113aa565b946020939093013593505050565b60006020828403121561140257600080fd5b5035919050565b60006020828403121561141b57600080fd5b611424826113aa565b9392505050565b600081518084526020808501945080840160005b8381101561145b5781518752958201959082019060010161143f565b509495945050505050565b602081526000611424602083018461142b565b6000806040838503121561148c57600080fd5b50508035926020909101359150565b8281526040602082015260006114b4604083018461142b565b949350505050565b634e487b7160e01b600052603260045260246000fd5b634e487b7160e01b600052601160045260246000fd5b80820281158282048414176104f1576104f16114d2565b634e487b7160e01b600052601260045260246000fd5b600082611524576115246114ff565b500490565b634e487b7160e01b600052604160045260246000fd5b6000600160ff1b8201611554576115546114d2565b5060000390565b60006001820161156d5761156d6114d2565b5060010190565b808201808211156104f1576104f16114d2565b818103818111156104f1576104f16114d2565b8181036000831280158383131683831282161715610632576106326114d2565b6000826115c9576115c96114ff565b500690565b6000816115dd576115dd6114d2565b50600019019056fea2646970667358221220e8387cc9947358a71fdbbb348d98637e9e538608118f86b9e51a60dbdff6cee464736f6c63430008140033",
  "linkReferences": {},
  "deployedLinkReferences": {}
}